:1000000034C000005AC0000058C0000056C00000B4
:1000100054C0000052C0000050C000004EC000009C
:100020004CC000004AC0000048C0000046C00000AC
:1000300044C000000C94AD1340C000003EC000005E
:100040003CC000003AC000000C94D01336C0000041
:1000500034C0000032C0000030C000002EC00000DC
:100060002CC000002AC00000B81011241FBECFEF22
:10007000D8E0DEBFCDBF15E0A0E0B1E0E2EEF1E4F4
:1000800002C005900D92A430B107D9F716E0A4E0A4
:10009000B5E001C01D92AE32B107E1F710E0CAE64B
:1000A000D0E004C02297FE010E94031EC836D1078B
:1000B000C9F70E945D120C94EF20A2CFA0E3B0E03C
:1000C000E4E6F0E00C94CA1DA8E04E010894811CFF
:1000D000911CF401BA2F1192BA95E9F729833A835A
:1000E0004B835C836D837E838F839887CE010996D3
:1000F000FC011192AA95E9F7A986BA86CB86DC861F
:10010000ED86FE860F87188B29813A814B815C81B1
:100110002DA73EA74FA758AB79018A018FEF9FEF1C
:10012000A0E0B0E0E822F9220A231B231A014424AC
:10013000552429853A854B855C8529A73AA74BA785
:100140005CA759016A01A822B922CA22DB223A011E
:1001500088249924C601B501A80197010E946E1D4B
:100160006DA37EA38FA398A7C401B3010E946E1D47
:1001700069A37AA38BA39CA3C601B501A201910137
:100180000E946E1D7B018C01C401B3010E946E1D93
:100190005B016C0189A19AA1ABA1BCA18E0D9F1D31
:1001A000A01FB11F89A39AA3ABA3BCA32DA13EA1FD
:1001B0004FA158A5CA01AA27BB2729A13AA14BA143
:1001C0005CA1280F391F4A1F5B1F29A33AA34BA329
:1001D0005CA32E153F054007510740F480E090E0F6
:1001E000A1E0B0E0A80EB91ECA1EDB1E89A19AA12B
:1001F000ABA1BCA19D01442755272A0D3B1D4C1DD9
:100200005D1D2D8F3E8F4F8F58A36C01BB24AA24F8
:100210008DA19EA1AFA1B8A5A070B070A80EB91E07
:10022000CA1EDB1EA98EBA8ECB8EDC8E9A8C8B8C6E
:100230007C8C9E8D6F8D78A1FE01719688E0DF0128
:100240001D928A95E9F72D8B9E8B6F8B788F2D856C
:100250003E854F8558896DA57EA58FA598A90E94DA
:100260006E1D7B018C012D813E814F81588569A5D2
:100270007AA58BA59CA50E946E1DE60EF71E081F91
:10028000191F6D897E898F89988D6E0D7F1D801F46
:10029000911F6D8B7E8B8F8B988FEE892A2D392D38
:1002A000482D572D7E2F8F89988DE096E2E10C9492
:1002B000E61DEF92FF920F93DF93CF93CDB7DEB79A
:1002C00060970FB6F894DEBF0FBECDBFA82F0023F6
:1002D00009F461C07E010894E11CF11C88E0F7017B
:1002E00011928A95E9F729833A834B835C836D8366
:1002F0007E83AF83988780E2801BE82FFF27E7FD8E
:10030000F09549815A816B817C81181684F0198699
:100310001A861B861C86882799278E1B9F0B04C074
:10032000440F551F661F771F8A95D2F728C0202FCC
:10033000332727FD3095DB01CA01022E04C0880F48
:10034000991FAA1FBB1F0A94D2F789879A87AB8788
:10035000BC8704C07695679557954795EA95D2F77F
:100360008D819E81AF81B88504C0880F991FAA1F17
:10037000BB1F2A95D2F7482B592B6A2B7B2B4D8715
:100380005E876F87788B29853A854B855C856D857F
:100390007E85AF8598898A2F60960FB6F894DEBF68
:1003A0000FBECDBFCF91DF910F91FF90EF900895D9
:1003B000EF92FF920F931F937B018C0120E030E0BE
:1003C00040E05FE40E94C40C88238CF0C801B701B0
:1003D00020E030E040E05FE40E94A10A0E947A0D34
:1003E0009B01AC01205030404040504806C0C8013D
:1003F000B7010E947A0D9B01AC01B901CA011F919E
:100400000F91FF90EF900895A2E0B0E0EAE0F2E0F3
:100410000C94CA1D122FB32EA42E952E862E372E85
:10042000282E9A83C22ED32EE42EF52EA7019601F4
:1004300060E070E080E090E02117A1F43B1591F4BA
:100440004A1581F4591571F4681561F4731551F466
:10045000821541F4AA819A1729F4C701B6010E94B6
:10046000CD0DAAC0212F3B2D4A2D592D682D732D5E
:10047000822D9A8100E20E94440EC901DA01803087
:10048000E0E09E07E1E0AE07E0E0BE0780F48F3FCA
:100490009105A105B10531F028F028E030E040E0F9
:1004A00050E016C020E030E040E050E011C0803065
:1004B000F0E09F07F0E0AF07F1E0BF0728F028E188
:1004C00030E040E050E004C020E130E040E050E0A7
:1004D000022E04C0B695A795979587950A94D2F7F2
:1004E000FC01E359FC4F808129013A01480E511C5F
:1004F000611C711C4982212F3B2D4A2D592D682DDD
:10050000732D822D9A81042D0E94440EC901DA01B7
:100510004C015D0180E290E08419950904C0CC0C87
:10052000DD1CEE1CFF1C8A95D2F7C114D104E10436
:10053000F10441F081E090E0A0E0B0E0882A992A3F
:10054000AA2ABB2A90E2491651046104710459F4A5
:100550000F2EF0E0EF2EF0E0FF2EF0E80F2FFFE47B
:100560001F2FF02D21C0AFE14A1651046104710420
:1005700059F40F2EF0E0EF2EF0E0FF2EF0E00F2FF9
:10058000FFE41F2FF02D10C061E070E080E090E0EC
:10059000098004C0660F771F881F991F0A94D2F73D
:1005A0000E941E0D7B018C01C501B4010E94CD0D7E
:1005B000A80197010E94F70A2296E2E10C94E61D39
:1005C000AEE5B0E0E6EEF2E00C94CA1DA8E04E0104
:1005D0000894811C911CF4016A2E11926A94E9F727
:1005E00029833A834B835C836D837E838F839887D3
:1005F000CE010996FC011192AA95E9F7A986BA865F
:10060000CB86DC86ED86FE860F87188B29843A849C
:100610004B845C84ED84FE840F85188969807A8020
:100620008B809C806DA67EA68FA698AA6D807E800A
:100630008F809884E114F1040105110509F0B3C31A
:10064000621473048404950408F03DC100E0201690
:1006500000E0300601E0400600E0500688F41FEF9D
:10066000211631044104510439F030F048E0E42E01
:10067000F12C012D112D18C0EE24FF24870114C088
:1006800020E0221620E0320620E0420621E0520659
:1006900030F038E1E32EF12C012D112D05C020E1C1
:1006A000E22EF12C012D112DD201C1010E2C04C01E
:1006B000B695A795979587950A94D2F783599C4F3D
:1006C000DC012C9180E290E0A0E0B0E08E199F095F
:1006D000A00BB10B7C018D01E21AF108010911098F
:1006E000E114F10401051105A1F10E2C04C0220C46
:1006F000331C441C551C0A94D2F7A40193010E2C00
:1007000004C0220F331F441F551F0A94D2F780E202
:1007100090E08E199F096DA47EA48FA498A804C0B0
:1007200096948794779467948A95D2F7622A732A6D
:10073000842A952AADA4BEA4CFA4D8A804C0AA0C2C
:10074000BB1CCC1CDD1CEA94D2F7ADA6BEA6CFA67E
:10075000D8AA6201EE24FF24CDAADEAAEFAAF8AE41
:10076000920181012070307009AF1AAF2BAF3CAFFE
:10077000C401B301A70196010E94A81D7B018C0151
:10078000C401B3012DA93EA94FA958AD0E94A81DCF
:10079000C901DA013C014D01C401B30129AD3AADF3
:1007A0004BAD5CAD0E946E1D9B01AC018701FF2427
:1007B000EE24ADA4BEA4CFA4D8A8C601AA27BB2707
:1007C00057016801A82AB92ACA2ADB2AA216B30649
:1007D000C406D506E0F40894610871088108910800
:1007E000A20CB31CC41CD51CA214B304C404D504AD
:1007F00070F0A216B306C406D50648F40894610842
:10080000710881089108A20CB31CC41CD51CA21A43
:10081000B30AC40AD50AC601B5012DA93EA94FA93C
:1008200058AD0E94A81D7B018C01C601B5012DA900
:100830003EA94FA958AD0E94A81DC901DA015C016B
:100840006D01C601B50129AD3AAD4BAD5CAD0E945D
:100850006E1D9B01AC018701FF24EE248DA59EA592
:10086000AFA5B8A9A070B070E82AF92A0A2B1B2BF3
:10087000E216F30604071507C0F40894A108B108AE
:10088000C108D108E20CF31C041D151DE214F30489
:100890000405150550F0E216F3060407150728F4C1
:1008A0000894A108B108C108D108D3019927882765
:1008B00086017501E82AF92A0A2B1B2BE9AAFAAA54
:1008C0000BAB1CABCFC4211431044104510471F4AF
:1008D00061E070E080E090E020E030E040E050E057
:1008E0000E94A81DC901DA011C012D0100E020169B
:1008F00000E0300601E0400600E0500688F41FEFFB
:10090000211631044104510431F028F048E050E050
:1009100060E070E017C040E050E060E070E012C0BE
:1009200020E0221620E0320620E0420621E05206B6
:1009300028F048E150E060E070E004C040E150E0A1
:1009400060E070E0D201C101042E04C0B695A79505
:10095000979587950A94D2F783599C4FDC012C9187
:10096000E0E2EE2EF12C012D112DD801C701841BE0
:10097000950BA60BB70B821B9109A109B109009732
:10098000A105B10561F464015301A218B308C408BC
:10099000D50831E0632E712C812C912C1EC16F96ED
:1009A0008FAF6F97082E04C0220C331C441C551CBB
:1009B0000A94D2F7EE2DE81B640153010E2E04C0F9
:1009C000D694C794B794A7940A94D2F7A40193013C
:1009D0006F960FAC6F9704C0220F331F441F551F33
:1009E0000A94D2F76DA47EA48FA498A80E2E04C0FA
:1009F00096948794779467940A94D2F7840173014C
:100A0000E22AF32A042B152BE9A6FAA60BA71CA7AA
:100A1000320188249924920181012070307021963E
:100A20000CAF1DAF2EAF3FAF2197C601B501A4019A
:100A300093010E94A81D7B018C01C601B501A40190
:100A400093010E94A81DC901DA0125968CAF9DAFC4
:100A5000AEAFBFAF2597BC01CD0121962CAD3DAD0A
:100A60004EAD5FAD21970E946E1D9B01AC018701C9
:100A7000FF24EE24A9A4BAA4CBA4DCA4C601AA270F
:100A8000BB275C016D01AE28BF28C02AD12AA2165F
:100A9000B306C406D50660F525966CAD7DAD8EAD6A
:100AA0009FAD2597615070408040904025966CAF77
:100AB0007DAF8EAF9FAF2597A20CB31CC41CD51C75
:100AC000A214B304C404D50498F0A216B306C40655
:100AD000D50670F4615070408040904025966CAF10
:100AE0007DAF8EAF9FAF2597A20CB31CC41CD51C45
:100AF000A21AB30AC40AD50AC601B501A40193011A
:100B00000E94A81D7B018C01C601B501A4019301BF
:100B10000E94A81DC901DA013C014D01C401B301C5
:100B200021962CAD3DAD4EAD5FAD21970E946E1D5F
:100B30009B01AC018701FF24EE2489A59AA5ABA5F2
:100B4000BCA5A070B07057016801A82AB92ACA2AAA
:100B5000DB2AA216B306C406D506E0F408946108A1
:100B6000710881089108A20CB31CC41CD51CA214E6
:100B7000B304C404D50470F0A216B306C406D506A7
:100B800048F408946108710881089108A20CB31C0C
:100B9000C41CD51C8DA59EA5AFA5B8A96F960FAC9A
:100BA0006F9704C0880F991FAA1FBB1F0A94D2F722
:100BB0008DA79EA7AFA7B8ABA21AB30AC40AD50ADD
:100BC0002596ECACFDAC0EAD1FAD2597D70199274E
:100BD0008827682A792A8A2A9B2A82012227332792
:100BE00029960CAF1DAF2EAF3FAF2997A2019101FF
:100BF000407050702D962CAF3DAF4EAF5FAF2D972C
:100C0000C601B50129962CAD3DAD4EAD5FAD29971E
:100C10000E94A81D7B018C01C601B50129962CAD4F
:100C20003DAD4EAD5FAD29970E94A81DC901DA0107
:100C300061968CAF9DAFAEAFBFAF6197BC01CD01E8
:100C40002D962CAD3DAD4EAD5FAD2D970E946E1D26
:100C50009B01AC018701FF24EE24ADA4BEA4CFA468
:100C6000D8A8C601AA27BB2757016801A82AB92A14
:100C7000CA2ADB2AA216B306C406D50660F5619619
:100C80006CAD7DAD8EAD9FAD619761507040804081
:100C9000904061966CAF7DAF8EAF9FAF6197A20C15
:100CA000B31CC41CD51CA214B304C404D50498F00E
:100CB000A216B306C406D50670F461507040804099
:100CC000904061966CAF7DAF8EAF9FAF6197A20CE5
:100CD000B31CC41CD51CA21AB30AC40AD50AC60187
:100CE000B50129962CAD3DAD4EAD5FAD29970E9463
:100CF000A81D7B018C01C601B50129962CAD3DAD27
:100D00004EAD5FAD29970E94A81DC901DA015C01B3
:100D10006D01C601B5012D962CAD3DAD4EAD5FAD5B
:100D20002D970E946E1D9B01AC018701FF24EE24CC
:100D30008DA59EA5AFA5B8A9A070B070E82AF92A24
:100D40000A2B1B2BE216F30604071507C0F40894C0
:100D5000A108B108C108D108E20CF31C041D151D3F
:100D6000E214F3040405150550F0E216F306040737
:100D7000150728F40894A108B108C108D1086196A4
:100D8000ECACFDAC0EAD1FAD6197D701992788275C
:100D900096018501082B192B2A2B3B2B09AB1AAB8B
:100DA0002BAB3CAB62C26E147F048006910608F444
:100DB00051C220E0E21620E0F20621E0020720E026
:100DC000120788F43FEFE316F1040105110531F035
:100DD00028F048E050E060E070E017C040E050E0EC
:100DE00060E070E012C040E0E41640E0F40640E04D
:100DF000040741E0140728F048E150E060E070E0AB
:100E000004C040E150E060E070E0D801C701042E6A
:100E100004C0B695A795979587950A94D2F78359FC
:100E20009C4FDC012C9130E2A32EB12CC12CD12C93
:100E3000D601C501841B950BA60BB70B821B91092C
:100E4000A109B1090097A105B10589F4E614F704D9
:100E50000805190508F4F2C16DA47EA48FA498A812
:100E6000621473048404950408F0E8C1F3C16E961B
:100E70008FAF6E97082E04C0EE0CFF1C001F111FD1
:100E80000A94D2F76A2D681BD201C101062E04C054
:100E9000B695A795979587950A94D2F75C016D0151
:100EA000AE28BF28C02AD12AADA2BEA2CFA2D8A602
:100EB000720161016E960FAC6E9704C0CC0CDD1C04
:100EC000EE1CFF1C0A94D2F7C9A2DAA2EBA2FCA284
:100ED00064015301062E04C0D694C794B794A79416
:100EE0000A94D2F7D401C3016E960FAC6E9704C07A
:100EF000880F991FAA1FBB1F0A94D2F7EDA4FEA466
:100F00000FA518A904C016950795F794E7946A955C
:100F1000D2F737014801682A792A8A2A9B2A6D8EDE
:100F20007E8E8F8E98A2EDA0FEA00FA118A538018D
:100F300088249924980187012070307065960CAF41
:100F40001DAF2EAF3FAF6597C601B501A401930158
:100F50000E94A81D7B018C01C601B501A40193016B
:100F60000E94A81DC901DA011C012D01C201B101B5
:100F700065962CAD3DAD4EAD5FAD65970E946E1D83
:100F80009B01AC018701FF24EE24AD8CBE8CCF8C7D
:100F9000D8A0C601AA27BB2757016801A82AB92AE9
:100FA000CA2ADB2AA216B306C406D50600F50894A1
:100FB0002108310841085108EDA0FEA00FA118A595
:100FC000AE0CBF1CC01ED11EAE14BF04C006D1069D
:100FD00070F0A216B306C406D50648F4089421089A
:100FE000310841085108AE0CBF1CC01ED11EA21A08
:100FF000B30AC40AD50AC601B501A40193010E942F
:10100000A81D7B018C01C601B501A40193010E94BA
:10101000A81DC901DA013C014D01C401B301659667
:101020002CAD3DAD4EAD5FAD65970E946E1D9B0131
:10103000AC018701FF24EE248D8D9E8DAF8DB8A16C
:10104000A070B07057016801A82AB92ACA2ADB2A01
:10105000A216B306C406D50600F508946108710807
:10106000810891086DA17EA18FA198A5A60EB71E3B
:10107000C81ED91EA616B706C806D90670F0A21655
:10108000B306C406D50648F40894610871088108BF
:101090009108A60EB71EC81ED91ED601C501821B17
:1010A000930BA40BB50B898F9A8FAB8FBC8FD1019B
:1010B0009927882764015301A82AB92ACA2ADB2A5A
:1010C000A9AABAAACBAADCAA860175012FEF3FEF25
:1010D00040E050E0E222F32204231523A601662714
:1010E00077276D964CAF5DAF6EAF7FAF6D97A9A0C0
:1010F000BAA0CBA0DCA06FEF7FEF80E090E0A6224B
:10110000B722C822D92289A19AA1ABA1BCA11D01F5
:1011100044245524C801B701A60195010E946E1D03
:1011200069966CAF7DAF8EAF9FAF6997C801B7016D
:10113000A20191010E946E1D3B014C016D966CADA8
:101140007DAD8EAD9FAD6D97A60195010E946E1D80
:101150007B018C016D966CAD7DAD8EAD9FAD6D97B5
:10116000A20191010E946E1D5B016C01A801970113
:10117000260D371D481D591D69966CAC7DAC8EAC93
:101180009FAC6997C401AA27BB27280F391F4A1FA4
:101190005B1F2E153F054007510748F4E12CF12C49
:1011A00061E0062F112DAE0CBF1CC01ED11ECA015E
:1011B000AA27BB27BC01CD016A0D7B1D8C1D9D1D7F
:1011C000698C7A8C8B8C9C8C6616770688069906BF
:1011D00040F1661577058805990509F043C0D901E6
:1011E0009927882769962CAD3DAD4EAD5FAD6997C7
:1011F00040705070820F931FA41FB51F2DA53EA5F0
:101200004FA558A96E960FAC6E9704C0220F331FDE
:10121000441F551F0A94D2F7281739074A075B075E
:1012200008F509A91AA92BA93CA901501040204092
:10123000304009AB1AAB2BAB3CAB14C0662477240F
:10124000430121E030E040E050E029AB3AAB4BAB4A
:101250005CAB0BC066247724430119AA1AAA1BAA07
:101260001CAA03C0662477244301FE01719688E01E
:10127000DF011D928A95E9F7A9A8BAA8CBA8DCA836
:10128000A98ABA8ACB8ADC8A6D8A7E8A8F8A988EEE
:1012900029A93A894B895C89662D7E898F89988D29
:1012A000C25ADF4FE2E10C94E61DA0E0B0E0EBE5AE
:1012B000F9E00C94CA1DDC012B01FA019C919230DB
:1012C00008F439C1EB018881823008F433C19430CD
:1012D00069F4843009F02FC111969C91119789818E
:1012E000981709F428C1A5E6B3E025C1843009F4B4
:1012F00021C18230A9F4923009F01DC19A01AD01DB
:1013000088E0EA010990AE01E90109929E0181504D
:10131000C1F7E201898111969C918923818308C1DB
:10132000923009F407C112962D903C901397EB016F
:101330008A819B811496AD90BD90CD90DC901797DB
:10134000EC80FD800E811F819101281B390BB901B2
:1013500037FF04C066277727621B730B6032710565
:101360000CF061C0121613066CF537014801062E09
:1013700004C096948794779467940A94D2F721E0F6
:1013800030E040E050E004C0220F331F441F551FDF
:101390006A95D2F721503040404050402E213F21E5
:1013A00040235123211531054105510521F021E04C
:1013B00030E040E050E079018A01E628F72808296A
:1013C00019293CC0232BD1F1260E371E35014601C9
:1013D000062E04C096948794779467940A94D2F763
:1013E00021E030E040E050E004C0220F331F441FF2
:1013F000551F6A95D2F721503040404050402A2175
:101400003B214C215D21211531054105510521F07C
:1014100021E030E040E050E059016A01A628B728F9
:10142000C828D9280BC0821593052CF01C01AA24CA
:10143000BB24650103C0EE24FF24870111969C9113
:10144000D20111968C91981709F445C0992339F06F
:10145000A80197012A193B094C095D0906C0A6019C
:1014600095012E193F09400B510B57FD08C0118201
:101470003382228224833583468357831DC081E0D3
:1014800081833382228288279927DC01821B930B78
:10149000A40BB50B84839583A683B7830DC0220F5D
:1014A000331F441F551F248335834683578382810E
:1014B000938101979383828324813581468157816B
:1014C000DA01C9010197A109B1098F5F9F4FAF4FA1
:1014D000BF4328F30BC0918333822282EA0CFB1CAA
:1014E0000C1D1D1DE482F5820683178383E0808333
:1014F000248135814681578157FF1AC0C901AA2727
:1015000097FDA095BA2F81709070A070B07056951D
:10151000479537952795822B932BA42BB52B848346
:101520009583A683B7838281938101969383828377
:10153000DF0101C0D201CD01CDB7DEB7E2E10C94ED
:10154000E61DA0E2B0E0E7EAFAE00C94D61D69835C
:101550007A838B839C832D833E834F835887E9E076
:10156000EE2EF12CEC0EFD1ECE010196B7012FD50B
:101570008E010F5E1F4FCE010596B80128D58A89CE
:1015800091E089278A8BC701B801AE01475E5F4FA2
:101590008CDE48D4A096E6E00C94F21DA0E2B0E008
:1015A000E4EDFAE00C94D61D69837A838B839C83E7
:1015B0002D833E834F835887F9E0EF2EF12CEC0EFC
:1015C000FD1ECE010196B70102D58E010F5E1F4FA1
:1015D000CE010596B801FBD4C701B801AE01475E44
:1015E0005F4F63DE1FD4A096E6E00C94F21DA0E2EC
:1015F000B0E0EDEFFAE00C94CA1D69837A838B8327
:101600009C832D833E834F835887CE010196BE0174
:10161000675F7F4FDCD4CE010596BE016F5E7F4FC2
:10162000D6D49985923088F089898230C8F0943078
:1016300019F4823051F404C0843029F4923081F4DA
:1016400085E693E0C6C0923049F420E09A858A8905
:10165000981321E02A87CE010996BBC0823049F455
:1016600020E09A858A89981321E02A8BCE01419641
:10167000B0C02D843E844F8458886D887E888F88C2
:10168000988CEE24FF248701AA24BB24650140E046
:1016900050E060E070E0E0E0F0E0C1018170907047
:1016A000892BE9F0E60CF71C081D191D9A01AB0106
:1016B0002A0D3B1D4C1D5D1D80E090E0A0E0B0E0D8
:1016C000E614F7040805190520F481E090E0A0E095
:1016D000B0E0BA01A901480F591F6A1F7B1FAA0C6D
:1016E000BB1CCC1CDD1C97FE08C081E090E0A0E094
:1016F000B0E0A82AB92ACA2ADB2A3196E032F105DD
:1017000049F0660C771C881C991C569447943794B2
:101710002794C3CFFA85EA892B893C898B859C85E0
:10172000280F391F2E5F3F4F17C0CA01817090707C
:10173000892B61F016950795F794E79480E090E087
:10174000A0E0B0E8E82AF92A0A2B1B2B76956795CA
:10175000579547952F5F3F4F77FDE7CF0CC0440F5C
:10176000551F661F771F17FD4160EE0CFF1C001F01
:10177000111F21503040403090E0590790E0690738
:1017800090E4790760F32B8F3C8FDB01CA018F77E0
:101790009070A070B07080349105A105B10561F41E
:1017A00047FD0AC0E114F1040105110529F0405C70
:1017B0005F4F6F4F7F4F40781A8EFE1711F081E018
:1017C0008A8F4D8F5E8F6F8F78A383E0898FCE01D4
:1017D000499628D3A096E2E10C94E61DA8E1B0E07A
:1017E000E4EFFBE00C94D21D69837A838B839C83A6
:1017F0002D833E834F835887B9E0EB2EF12CEC0EFE
:10180000FD1ECE010196B701E2D38E010F5E1F4F80
:10181000CE010596B801DBD32985223008F47EC0BD
:101820003989323010F4B8017CC08A859A898927B9
:101830008A87243011F0223031F4231709F06EC06A
:1018400065E673E06EC0343039F41D861E861F864F
:10185000188A1C861B8604C0323021F484E08987F4
:10186000B7015FC02B853C858B899C89281B390B70
:101870003C872B87ED84FE840F851889AD88BE8850
:10188000CF88D88CEA14FB040C051D0540F4EE0C3F
:10189000FF1C001F111F215030403C872B8720E088
:1018A00030E040E050E080E090E0A0E0B0E460E0B4
:1018B00070E0EA14FB040C051D0540F0282B392BC1
:1018C0004A2B5B2BEA18FB080C091D09B695A79556
:1018D00097958795EE0CFF1C001F111F6F5F7F4FC0
:1018E0006F31710531F7DA01C9018F779070A070FF
:1018F000B07080349105A105B10561F427FD0AC0DF
:10190000E114F1040105110529F0205C3F4F4F4F10
:101910005F4F20782D873E874F87588BBE01675FCA
:101920007F4FCB017FD26896EAE00C94EE1DA8E1D0
:10193000B0E0EDE9FCE00C94D61D69837A838B83DB
:101940009C832D833E834F83588789E0E82EF12CBA
:10195000EC0EFD1ECE010196B70139D38E010F5E4C
:101960001F4FCE010596B80132D38985823038F0F9
:101970008989823020F0C701B801A1D301C08FEF5F
:101980006896E6E00C94F21DA8E1B0E0EAECFCE019
:101990000C94D61D69837A838B839C832D833E832D
:1019A0004F83588789E0E82EF12CEC0EFD1ECE0106
:1019B0000196B7010CD38E010F5E1F4FCE01059625
:1019C000B80105D38985823038F08989823020F0CA
:1019D000C701B80174D301C08FEF6896E6E00C949C
:1019E000F21DA8E1B0E0E7EFFCE00C94D61D69839E
:1019F0007A838B839C832D833E834F83588789E032
:101A0000E82EF12CEC0EFD1ECE010196B701DFD2BF
:101A10008E010F5E1F4FCE010596B801D8D2898581
:101A2000823038F08989823020F0C701B80147D36D
:101A300001C081E06896E6E00C94F21DA8E0B0E0F9
:101A4000E4E2FDE00C94D31D9B01AC0183E08983AB
:101A5000DA01C9018827B7FD83959927AA27BB27F3
:101A6000B82E211531054105510519F482E089830D
:101A700039C08823A9F0203080E0380780E048078B
:101A800080E8580729F460E070E080E09FEC2EC009
:101A9000EE24FF248701E21AF30A040B150B02C09F
:101AA00079018A018EE1C82ED12CDC82CB82ED82B5
:101AB000FE820F831887C801B70165D101971816F8
:101AC000190684F4082E04C0EE0CFF1C001F111F21
:101AD0000A94D2F7ED82FE820F831887C81AD90ABA
:101AE000DC82CB82BA82CE0101969CD12896E9E0B5
:101AF0000C94EF1DACE0B0E0E0E8FDE00C94DA1DE2
:101B000069837A838B839C83CE010196BE016B5FD0
:101B10007F4F5DD28D81823061F1823050F184300F
:101B200021F48E81882351F12EC02F81388537FD15
:101B300020C06E812F3131051CF06623F9F023C0DF
:101B40008EE190E0821B930B29853A854B855C855D
:101B500004C056954795379527958A95D2F7662301
:101B6000B1F050954095309521953F4F4F4F5F4FC5
:101B70000EC020E030E040E050E009C02FEF3FEF22
:101B80004FEF5FE704C020E030E040E050E8B901EB
:101B9000CA012C96E2E00C94F61DA8E0B0E0E3ED5B
:101BA000FDE00C94D21D7B018C016115710581054E
:101BB000910519F482E089835FC083E089838EE117
:101BC000C82ED12CDC82CB82ED82FE820F83188757
:101BD000C801B701D8D0FC013197F7FF3BC02227DD
:101BE00033272E1B3F0B57016801022E04C0D694E9
:101BF000C794B794A7940A94D2F740E050E060E00D
:101C000070E081E090E0A0E0B0E004C0880F991F90
:101C1000AA1FBB1F2A95D2F70197A109B1098E21EE
:101C20009F21A023B1230097A105B10521F041E038
:101C300050E060E070E04A295B296C297D294D83E2
:101C40005E836F8378878EE190E08E1B9F0B9C8371
:101C50008B8312C0309781F00E2E04C0EE0CFF1C57
:101C6000001F111F0A94D2F7ED82FE820F8318879E
:101C7000CE1ADF0ADC82CB821A82CE010196D2D044
:101C80002896EAE00C94EE1DEF92FF920F93DF93FB
:101C9000CF93CDB7DEB760970FB6F894DEBF0FBE17
:101CA000CDBFA82F002309F461C07E010894E11C78
:101CB000F11C88E0F70111928A95E9F729833A83AC
:101CC0004B835C836D837E83AF83988780E2801B28
:101CD000E82FFF27E7FDF0954D815E816F817885C4
:101CE000181684F01D861E861F86188A8827992755
:101CF0008E1B9F0B04C076956795579547958A95DF
:101D0000D2F728C0202F332727FD3095DB01CA01E9
:101D1000022E04C0B695A795979587950A94D2F799
:101D20008D879E87AF87B88B04C0440F551F661FF1
:101D3000771FEA95D2F789819A81AB81BC8104C073
:101D4000B695A795979587952A95D2F7482B592B45
:101D50006A2B7B2B49875A876B877C8729853A8535
:101D60004B855C856D857E85AF8598898A2F6096C9
:101D70000FB6F894DEBF0FBECDBFCF91DF910F91AC
:101D8000FF90EF900895EF92FF920F931F937B01C6
:101D90008C0180E0E81680E0F80681E0080780E02A
:101DA000180788F48FEFE816F1040105110531F0EA
:101DB00028F088E090E0A0E0B0E017C080E090E07C
:101DC000A0E0B0E012C080E0E81680E0F80680E015
:101DD000080781E0180728F088E190E0A0E0B0E073
:101DE00004C080E190E0A0E0B0E020E230E040E01C
:101DF00050E0281B390B4A0B5B0B04C01695079566
:101E0000F794E7948A95D2F7F701E359FC4F808164
:101E1000281B310941095109C9011F910F91FF90F8
:101E2000EF900895DF92EF92FF920F931F93FC01C2
:101E3000E480F58006811781D1808081823048F46A
:101E400080E090E0A0E1B0E0E82AF92A0A2B1B2B01
:101E5000A5C0843009F49FC0823021F4EE24FF2411
:101E6000870105C0E114F1040105110519F4E0E052
:101E7000F0E096C0628173819FEF623879070CF0C1
:101E80005BC022E83FEF261B370B2A3131052CF0CF
:101E900020E030E040E050E02AC0B801A701022E67
:101EA00004C076956795579547950A94D2F781E0D7
:101EB00090E0A0E0B0E004C0880F991FAA1FBB1FEC
:101EC0002A95D2F70197A109B1098E219F21A0235C
:101ED000B1230097A105B10521F081E090E0A0E0D9
:101EE000B0E09A01AB01282B392B4A2B5B2BDA018E
:101EF000C9018F779070A070B07080349105A105F2
:101F0000B10539F427FF09C0205C3F4F4F4F5F4FA9
:101F100004C0215C3F4F4F4F5F4FE0E0F0E02030C6
:101F2000A0E03A07A0E04A07A0E45A0710F0E1E079
:101F3000F0E079018A0127C06038710564F5FB0182
:101F4000E158FF4FD801C7018F779070A070B07033
:101F500080349105A105B10539F4E7FE0DC080E498
:101F600090E0A0E0B0E004C08FE390E0A0E0B0E03B
:101F7000E80EF91E0A1F1B1F17FF05C016950795CF
:101F8000F794E794319687E016950795F794E794D0
:101F90008A95D1F705C0EE24FF248701EFEFF0E02A
:101FA0006E2F679566276795902F9F77D794DD24CE
:101FB000D7948E2F8695492F462B582F5D29B70130
:101FC000CA011F910F91FF90EF90DF900895FC01DF
:101FD000DB01408151812281622F6F7770E0221FE7
:101FE0002227221F9381892F880F822B282F30E0F0
:101FF000991F9927991F11969C93119721153105C7
:10200000A9F5411551056105710511F482E037C04C
:1020100082E89FEF13969C938E9312979A01AB01DF
:1020200067E0220F331F441F551F6A95D1F783E0E5
:102030008C930DC0220F331F441F551F12968D9194
:102040009C911397019713969C938E93129720302F
:1020500080E0380780E0480780E4580758F314967A
:102060002D933D934D935C93179708952F3F310522
:1020700079F4411551056105710519F484E08C93DB
:10208000089564FF03C081E08C9312C01C9210C0BD
:102090002F57304013963C932E93129783E08C93E6
:1020A00087E0440F551F661F771F8A95D1F770642C
:1020B00014964D935D936D937C93179708951F939A
:1020C000DC01FB019C91923008F447C08081823092
:1020D00008F443C0943051F411961C91843099F562
:1020E0008181682F70E0611B71093FC0843021F04D
:1020F000923031F48230B9F18181882389F12DC089
:1021000011961C9111978230F1F081811817D9F442
:1021100012962D913C911397828193818217930798
:1021200094F028173907BCF014968D919D910D906D
:10213000BC91A02D2481358146815781281739070C
:102140004A075B0718F4112341F00AC0821793076E
:10215000A407B50740F4112319F061E070E005C051
:102160006FEF7FEF02C060E070E0CB011F91089538
:102170008DE096E042C42F923F924F925F926F9211
:102180007F928F929F92AF92BF92CF92DF92EF9207
:10219000FF920F931F937C0100D000D080E091E06C
:1021A000EDB7FEB792838183F482E3820E943A1EE8
:1021B0000F900F900F900F900E94071D922E832E6C
:1021C000742E652E562E472E382E292E00E010E054
:1021D000C801B701E2DC5B016C0120E030E04AEFAE
:1021E00054E405DA7B018C0120E030E040E85FE355
:1021F000F8DB88231CF461E070E022C0C801B7015D
:1022000020E03FEF4FE757E492DB1816ACF4C6012D
:10221000B50120E030E040E251E4E9D90E94D80164
:1022200088EC90E005C0FC013197F1F761507040F7
:1022300061157105C1F707C0C801B7010E94D80137
:10224000CB010197F1F7292D382D472D562D652DFE
:10225000742D832D922D0E947A1B00D000D000D0C7
:1022600020E131E0EDB7FEB73283218363837483CD
:10227000858396830E943A1E8DB79EB706960FB649
:10228000F8949EBF0FBE8DBF1F910F91FF90EF90EE
:10229000DF90CF90BF90AF909F908F907F906F9086
:1022A0005F904F903F902F900895CF92DF92EF92E2
:1022B000FF920F931F93DF93CF930F92CDB7DEB7AB
:1022C000CDB6DEB680910306882309F4E7C084E02A
:1022D00095E063E271E045E050E00E94241E009723
:1022E00051F50DB71EB78091030690E005972DB705
:1022F0003EB7281B390B0FB6F8943EBF0FBE2DBF5B
:102300004DB75EB74F5F5F4F25E00BC0E22FF0E0A7
:10231000DF01AC5FBA4F8C91E40FF51F35978083D6
:102320002F5F80910306281788F3CA010E94071EB9
:1023300022DFC801A2C084E095E069E271E048E0D4
:1023400050E00E94241E009709F047C0FDB6EEB68B
:102350008091030690E00897EDB7FEB7E81BF90BF4
:102360000FB6F894FEBF0FBEEDBF4DB75EB74F5F1F
:102370005F4F28E00BC0E22FF0E0DF01AC5FBA4F07
:102380008C91E40FF51F389780832F5F80910306AF
:10239000281788F3CA010E94071E8C010E94471C5F
:1023A00020930506309306064093070650930806CF
:1023B0006093090670930A0680930B0690930C06AF
:1023C00010936E0400936D042F2D3E2DC9010FB69E
:1023D000F8949EBF0FBE8DBF61C084E095E062E3BC
:1023E00071E045E050E00E94241E009709F04BC0C8
:1023F0001DB70EB78091030690E005972DB73EB745
:10240000281B390B0FB6F8943EBF0FBE2DBF2F5FB0
:102410003F4F95E00BC0E92FF0E0DF01AC5FBA4F12
:102420008C91E20FF31F359780839F5F80910306A5
:10243000981788F38DE096E03ED68FE689838DE08D
:1024400096E0BE016F5F7F4F41E020E081D6882398
:1024500021F000D088E391E003C000D080E491E057
:10246000EDB7FEB7928381830E943A1E0F900F90C2
:102470008DE096E02ED6812F902F0FB6F8949EBF58
:102480000FBE8DBF0BC000D08AE491E0EDB7FEB760
:10249000928381830E943A1E0F900F900FB6F8949A
:1024A000DEBE0FBECDBE0F90CF91DF911F910F9179
:1024B000FF90EF90DF90CF9008952F923F924F9230
:1024C0005F926F927F928F929F92BF92CF92DF9294
:1024D000EF92FF920F931F93DF93CF930F92CDB79D
:1024E000DEB70E94411D78940E945D1B00D08DE5EF
:1024F00091E0EDB7FEB7928381830E943A1E6EE6AB
:10250000C62E61E0D62EEDB7FEB7D282C1820E9400
:102510003A1E8AE791E0EDB7FEB7928381830E946D
:102520003A1E0F900F908DE096E09DD68DE096E0DC
:102530006FE04FE035D48DE096E068E070D28DE03A
:1025400096E063E073D48DE096E068E76AD58DE0AD
:1025500096E001EE10EF20EF30EF40EF50E060E04A
:1025600070E0FAD48DE096E061E052EDE52E40EFA8
:10257000F42E00EF20EF30E040E050E076D48DE024
:1025800096E0A7D58DE096E0A6D78DE096E093D5AE
:1025900081E08093050610920606109207061092BD
:1025A00008061092090610920A0610920B06109265
:1025B0000C06BC2CCD2C3CEA232E31E0332E2FE62A
:1025C000D22E2E010894411C511C90E4692E91E0FA
:1025D000792E88E3882E81E0982E8091040681FF71
:1025E00018C000D082E991E0EDB7FEB792838183F5
:1025F0000E943A1EEDB7FEB7B182C2820E943A1E17
:1026000010920306809104068D7F809304060F903C
:102610000F908091040680FF11C047DE00D0EDB717
:10262000FEB7B182C2820E943A1E109203068091C8
:1026300004068E7F809304060F900F900E94071D62
:1026400079018A01B62FA72FF82FE92F809105066F
:1026500090910606209107063091080640910906E0
:1026600050910A0660910B0670910C06892B822B03
:10267000832B842B852B862B872B09F4AECF70916F
:1026800005066091060650910706409108063091B4
:10269000090620910A0690910B0680910C06E81716
:1026A00008F49BCF8E1709F5F91708F496CF9F17FA
:1026B000E1F4A21708F491CF2A17B9F4B31708F47C
:1026C0008CCF3B1791F4141708F487CF411769F4A6
:1026D000051708F482CF501741F4F61608F47DCFA1
:1026E0006F1519F4E71608F478CF80916D04909176
:1026F0006E040E94471C2093050630930606409303
:102700000706509308066093090670930A068093A3
:102710000B0690930C0600D0EDB7FEB732822182F3
:102720000E943A1ED9820F900F908DE096E0B20180
:1027300041E020E00DD5882331F000D0EDB7FEB7A1
:102740009282818205C000D0EDB7FEB772826182AD
:102750000E943A1E0F900F9040CF1F920F920FB61B
:102760000F9211242F933F934F935F936F937F9317
:102770008F939F93AF93BF93EF93FF93A7D7FF914F
:10278000EF91BF91AF919F918F917F916F915F91E9
:102790004F913F912F910F900FBE0F901F90189562
:1027A0001F920F920FB60F9211241F932F933F93F6
:1027B0004F935F936F937F938F939F93AF93BF9349
:1027C000EF93FF931091C6001D3019F01F3759F495
:1027D00004C080910406816003C080910406826079
:1027E000809304060DC0812F0E94531D8091030623
:1027F000E82FF0E0EC5FFA4F10838F5F80930306C1
:10280000FF91EF91BF91AF919F918F917F916F91C8
:102810005F914F913F912F911F910F900FBE0F909D
:102820001F9018958F929F92AF92BF92CF92DF9296
:10283000EF92FF920F931F9359016A017B01980158
:10284000A501B601C7010E9404025B016C012BEADD
:102850003AEA4AE250E40E94F70A7B018C0120E048
:1028600030E040E85FE3BDD8882314F461E051C054
:10287000C801B70120E030E04FE753E458D81816FC
:102880000CF043C0C601B50120E030E04AE754E453
:102890000E94EE0B5B016C0120E030E04AEF54E453
:1028A0000E94F70A7B018C0120E030E040E85FE302
:1028B00098D888231CF461E070E023C0C801B701F8
:1028C00020E03FEF4FE757E432D81816B4F4C601C2
:1028D000B50120E030E040E251E40E94F70A0E9496
:1028E000D80188EC90E005C0FC013197F1F7615008
:1028F000704061157105C1F70EC0C801B7010E9493
:10290000D801CB010197F1F706C0C801B7010E94B9
:10291000D8016A95F1F71F910F91FF90EF90DF902A
:10292000CF90BF90AF909F908F9008958F929F927D
:10293000AF92BF92CF92DF92EF92FF920F931F93CD
:1029400059016A017B019801A501B601C7010E94E6
:1029500004025B016C0120E030E04AEF54E40E9485
:10296000F70A7B018C0120E030E040E85FE339D8D2
:1029700088231CF461E070E024C0C801B70120E0A6
:102980003FEF4FE757E40E94970C1816B4F4C601C6
:10299000B50120E030E040E251E40E94F70A0E94D5
:1029A000D80188EC90E005C0FC013197F1F7615047
:1029B000704061157105C1F707C0C801B7010E94D9
:1029C000D801CB010197F1F71F910F91FF90EF9084
:1029D000DF90CF90BF90AF909F908F90089548C6A2
:1029E000089559C60895862F3DC6862F35C6862F71
:1029F0002DC629C6089521C60895FC0181E0808373
:102A0000118280E2828313821482158216821782D9
:102A10001086118612861386148615860895FC0189
:102A2000613208F060E262830895FF920F931F9372
:102A30000BE116E0C80160E0DADFC80160E6D3DF31
:102A4000C8016FEFD0DFF82EC80161E0D0DF8F2D15
:102A50001F910F91FF900895FF920F931F930BE129
:102A600016E0C80160E0C3DFC8016FEFBCDFF82EDD
:102A7000C80161E0BCDF8F2D1F910F91FF90089579
:102A8000FF920F931F930BE116E0C80160E0AFDFE8
:102A9000C80161EEA8DFF82EC80161E0A8DF8F2D24
:102AA0001F910F91FF900895FF920F931F930BE1D9
:102AB00016E0C80160E09BDFC80162EE94DFF82EEB
:102AC000C80161E094DF8F2D1F910F91FF90089551
:102AD000FF920F931F93CF93DF93FC01F22E92810D
:102AE000142F941708F4192F8481882311F000E023
:102AF00002C0092F011BEB018BE196E060E077DF5C
:102B00008BE196E06F2D6FDFF82E05C069918BE1A8
:102B100096E069DF11501123C9F705C08BE196E0FB
:102B200060E061DF01500023C9F78BE196E061E0CE
:102B30005EDF8F2DDF91CF911F910F91FF90089550
:102B40000F931F93CF93DF93162FEA01022F8BE190
:102B500096E060E04CDF1F7110628BE196E0612F20
:102B600042DF182F05C069918BE196E03CDF0150F0
:102B70000023C9F78BE196E061E039DF812FDF9117
:102B8000CF911F910F910895EF92FF921F93162FEF
:102B90008BE1E82E86E0F82EC70160E028DF1F7188
:102BA000C701612F20DFC7016FEF1DDF182FC7019D
:102BB00061E01DDF812F1F91FF90EF90089564E089
:102BC000E3CFFDDF282F30E02F7030704AEF50E068
:102BD000B901649F9001659F300D749F300D1124E1
:102BE00082958F7090E00196A901489F9001499FBE
:102BF000300D589F300D1124C901089560E0C4DFE5
:102C00008C7083FD02C080E0089582FD02C081E0E7
:102C1000089582E0089566E0B7DF982F98729032A9
:102C200011F482E0089580E0983009F481E008957D
:102C300066E0AADF8670863011F493E008C0843025
:102C400011F492E004C090E0823009F491E0892F01
:102C500008950F931F93CF93DF93162FEA01022F4E
:102C60008BE196E060E0C3DE1F718BE196E0612F9F
:102C7000BADE182F06C08BE196E06FEFB4DE8993C1
:102C800001500023C1F78BE196E061E0B0DE812FB7
:102C9000DF91CF911F910F91089570E08DB79EB78E
:102CA0000E970FB6F8949EBF0FBE8DBFEDB7FEB75F
:102CB000319686EE91E0ADB7BEB712969C938E9397
:102CC000119773836283CB0156E0969587955A9549
:102CD000E1F78170907095838483CB0145E09695F0
:102CE00087954A95E1F78170907097838683CB0131
:102CF00034E0969587953A95E1F7817090709187C9
:102D00008087CB0195958795877090709387828790
:102D10006170707075876487ADD78DB79EB70E965A
:102D20000FB6F8949EBF0FBE8DBF0895EF92FF922D
:102D30000F931F93F62EE42E00D000D000D0EDB7F5
:102D4000FEB731968CE292E0ADB7BEB712969C9377
:102D50008E93119762831382448315828BD78DB72C
:102D60009EB706960FB6F8949EBF0FBE8DBF0BE1BF
:102D700016E0C80160E03BDE9FE1F922A0E2FA2AFA
:102D8000C8016F2D30DEF82EC8016E2D2CDEC80173
:102D900061E02DDE8F2D1F910F91FF90EF90089530
:102DA000262F4F702295207F242B64E0422FBECF28
:102DB0001F93CF93DF93EC01162F60E0E5DE482FE1
:102DC000437F112329F0113011F4486001C04C6099
:102DD000CE0160E0ABDFDF91CF911F9108950F939B
:102DE0001F93CF93DF93EC01162F66E0CDDE1882A0
:102DF000082F077D123011F4006206C0113019F45B
:102E00001883086001C01882CE0166E0402F8EDF73
:102E1000CE0166E0B9DE801711F481E002C01882AD
:102E200080E0DF91CF911F910F9108951F93CF9371
:102E3000DF93EC01162F66E0A7DE482F497F1330A1
:102E400061F0123011F4446009C0113011F4426095
:102E500005C0112319F0143009F44660CE0166E074
:102E600065DFDF91CF911F910895BF92CF92DF92DE
:102E7000EF92FF920F931F93DF93CF93CDB7DEB7FF
:102E800028970FB6F894DEBF0FBECDBF6C01B62EEB
:102E9000E982FA820B831C832D833E834F835887FC
:102EA000662389F4F601E6828A8187838B81808795
:102EB0008C8181878D8182878E8183878F818487B2
:102EC0008885858706C0F6E0F617B0F181E06817BF
:102ED00059F4EB2DF0E0ED57FB4FC6016081AE01D8
:102EE0004F5F5F4F25E00AC0E62FF0E0ED57FB4F44
:102EF000C6016081AE014F5F5F4F21E021DE0B2DE7
:102F000010E0F801E757FB4FC6016081F6014281EE
:102F10000DDFC60162E038DE03581B4F21E030E0D0
:102F2000F801008002C0220F331F0A94E2F7482FF5
:102F3000422BC60162E0FADE28960FB6F894DEBF97
:102F40000FBECDBFCF91DF911F910F91FF90EF90FA
:102F5000DF90CF90BF900895EF92FF920F931F9351
:102F6000DF93CF93CDB7DEB728970FB6F894DEBFC7
:102F70000FBECDBF7C0109831A832B833C834D8315
:102F80005E836F8378878E010F5F1F4F6AE0A80111
:102F900025E0D6DDC70160E1A80125E0D1DDF7011C
:102FA0004281413208F040E2C70161E1BFDE28966C
:102FB0000FB6F894DEBF0FBECDBFCF91DF911F914A
:102FC0000F91FF90EF900895CF92DF92EF92FF92D2
:102FD0000F931F938B017A01690167E040E7A6DE3A
:102FE00090E09C01E5E036952795EA95E1F72170A0
:102FF000F801208374E0969587957A95E1F7282F5C
:103000002170F70120839695879596958795817015
:10301000F60180831F910F91FF90EF90DF90CF908A
:103020000895462F603808F04FE765E07FCECF92D5
:10303000DF92EF92FF920F931F93CF93DF93EC01F8
:103040006B01E42EF22E60E09FDD482F4C7F426042
:10305000CE0160E06BDE8BE196E006E910E020E057
:1030600030E040E050E060E070E0DCDBFF2011F495
:1030700020EA01C020EBCE01B6014E2D29DD8BE107
:1030800096E061E0B2DC8BE196E00AE010E020E03F
:1030900030E040E050E060E070E0C4DB8BE196E0BF
:1030A00060E0A3DCDF91CF911F910F91FF90EF9033
:1030B000DF90CF9008950F931F938C018BE196E0E2
:1030C00060E093DCC801DCDCC801EEDC1F910F91ED
:1030D00008950F931F93CF93DF93EC0160E054DDCD
:1030E000482F4360CE0160E021DECE0167E040E77B
:1030F0001DDE8E819F81892B9885892B9985892B4F
:103100009A85892B9B85892B9C85892B9D85892B6D
:1031100039F0AE014A5F5F4FCE016AE025E010DD75
:10312000CE01C2DCCE01ACDC8BE196E061E05DDC7F
:103130008BE196E002E810E020E030E040E050E073
:1031400060E070E06FDBDF91CF911F910F910895E8
:103150008F929F92AF92BF92CF92DF92EF92FF92A7
:103160001F93DF93CF9300D00F92CDB7DEB77C01D2
:103170005EDF8BE196E035DCC70123DD6C014E019B
:103180000894811C911CB5E5AB2EB2E0BB2EC701A3
:1031900068E0A40121E05DDD182F00D000D0EDB77C
:1031A000FEB73196ADB7BEB71296BC92AE921197EC
:1031B0008981828313825ED510730F900F900F90D8
:1031C0000F9009F03EC08BE196E009DC8C159D055F
:1031D000C0F5DDCF89E692E000D0EDB7FEB792836F
:1031E000818348D50F900F90D70113968C91882337
:1031F000C1F0C7011ADCF701858300D000D0EDB71C
:10320000FEB7319622E732E0ADB7BEB712963C93D7
:103210002E931197828313822DD50F900F900F90CC
:103220000F90812F0F900F900F90CF91DF911F91F2
:10323000FF90EF90DF90CF90BF90AF909F908F90D6
:10324000089597012D5F3F4FC701BE016E5F7F4F0D
:10325000AE014D5F5F4FB8DE1A81112309F0BACF7E
:1032600088E992E0B9CF0F931F93CF93DF93EC01DE
:103270008BE196E0C0DB8BE196E0BBDB8BE196E077
:1032800060E0B3DB8BE196E061E0B1DB8BE196E0DF
:1032900005E010E020E030E040E050E060E070E069
:1032A00045DBCE0164E04FE541DDCE0163E0BEDDEC
:1032B000CE0162E094DD882311F081E08983CE01A4
:1032C00062E08DDDCE0162E073DDCE016CE140E0B5
:1032D0002DDDCE0167E040E729DDCE016CE4A1DE03
:1032E000CE01E2DBCE01CCDBDF91CF911F910F91BC
:1032F00008954F925F926F927F928F929F92AF92BA
:10330000BF92CF92DF92EF92FF920F931F93DF93C2
:10331000CF9300D000D00F92CDB7DEB75C01E42E82
:10332000F22EFB0101900020E9F73197E61BF70B25
:10333000389710F020E001C029E000D000D000D084
:10334000EDB7FEB7319684EA92E0ADB7BEB71296FC
:103350009C938E93119762837383248315828AD4FE
:10336000EDB7FEB736960FB6F894FEBF0FBEEDBFB1
:103370002E010894411C511C8CEA682E82E0782EA4
:1033800006E0802E912C8C0E9D1E10EBC12E12E0BB
:10339000D12E2CC0C5016E2DA20125E05ADC00D033
:1033A000ADB7BEB712967C926E92119763D484012A
:1033B0000F900F9014C000D000D0EDB7FEB731963B
:1033C000ADB7BEB71296DC92CE921197D8018C9110
:1033D000828313824FD40F900F900F900F90015063
:1033E00010400C171D0739F7E394FA94FF2091F66B
:1033F00085EB92E051D40F900F900F900F900F90AB
:10340000CF91DF911F910F91FF90EF90DF90CF90C0
:10341000BF90AF909F908F907F906F905F904F90F4
:103420000895CF92DF92FF920F931F93CF93DF9374
:103430006C01042FF22EFB0101900020E9F7319777
:10344000E61BF70B389710F020E001C029E000D010
:1034500000D000D0EDB7FEB7319684EA92E0ADB768
:10346000BEB712969C938E931197628373832483C5
:10347000158200D48DB79EB706960FB6F8949EBFFE
:103480000FBE8DBFC7EBD2E019C0102F1F5FC60162
:10349000602F7ADB00D000D0EDB7FEB73196ADB724
:1034A000BEB71296DC93CE93119782831382E2D338
:1034B000FA94012F0F900F900F900F90FF2029F793
:1034C00085EB92E0E9D3DF91CF911F910F91FF90AF
:1034D000DF90CF9008950F931F938C01BDDA682F72
:1034E000C801DBDBC8016FEB72E04AE022E001DFDC
:1034F000C8016CEC72E04CE024E093DFC80169ED98
:1035000072E040E121E0F5DEC80161EE72E041E1E8
:1035100026E087DFC8016CEE72E041E021E081DF48
:10352000C80162EF72E042E021E07BDFC8016CEF8E
:1035300072E045E021E075DFC80162E073E046E03B
:1035400021E06FDFC8016BE073E040E021E069DF5C
:10355000C80162E173E04CE122E063DFC8015BDB9C
:1035600000D000D020E233E0ADB7BEB712963C9356
:103570002E931197E82FF0E0EE0FFF1FE157FB4F5E
:103580008081918114969C938E93139773D382E3D9
:1035900093E0EDB7FEB792838183D8011196EC9149
:1035A000F0E0EE0FFF1FEB56FB4F80819181EDB7EE
:1035B000FEB7948383835ED30F900F900F900F908C
:1035C000C8011CDB00D000D021E433E0ADB7BEB7AA
:1035D00012963C932E931197E82FF0E0EE0FFF1F09
:1035E000E756FB4F8081918114969C938E9313979D
:1035F00041D30F900F900F900F90C80119DB00D0AE
:1036000000D024E533E0EDB7FEB732832183E82F05
:10361000F0E0EE0FFF1FE156FB4F80819181ADB7C7
:10362000BEB714969C938E93139724D30F900F904C
:103630000F900F901F910F910895219A259A239A28
:103640002498229A089581E58CBD0895882311F06D
:10365000299A089529980895882311F02A9A08959F
:103660002A9808958EBD0DB407FEFDCF8EB508953E
:1036700020911C0630911D0640911E0650911F0698
:103680006091200670912106809122069091230678
:1036900031D0CB010895BBD120931C0630931D0679
:1036A00040931E0650931F066093200670932106D8
:1036B0008093220690932306089585E080938100ED
:1036C000EFE6F0E080818160808308958091240698
:1036D00090912506A0912606B09127060196A11D7E
:1036E000B11D8093240690932506A0932606B093DF
:1036F000270608952F923F924F925F926F927F928A
:103700008F929F92AF92BF92CF92DF92EF92FF92F1
:103710000F931F93CF93DF93922E832E742E652EDB
:10372000562E472E382E292EA0902406B09025061E
:10373000C0902606D0902706C0918400D0918500C5
:10374000C430D10540F4A0902406B0902506C09066
:103750002606D09027069501A60160E070E080E083
:1037600090E000E10E945901E32FF42F052FF62E7F
:10377000D72EB82E192FAE012C2BE52BA22EA9186F
:1037800081E02A1508F080E03E2F381991E0E31718
:1037900008F090E0C32EC81A81E03C1508F080E0E4
:1037A000982B4F2F471921E0F41708F020E0E42E62
:1037B000E91A81E04E1508F080E0282B502F5619A9
:1037C00091E0051708F090E0052F021B81E05017EB
:1037D00008F080E0982B6F2D651921E0F61608F0AF
:1037E00020E0B62FB91B81E06B1708F080E0282B92
:1037F0007D2D7419E1E0D71608F0E0E0A72FA21B99
:1038000091E07A1708F090E0E92B8B2D8319F1E015
:10381000B81608F0F0E0982F9E1BE92F91E08E1764
:1038200008F090E0F92B12192A2D3C2D4E2D502F27
:103830006B2F7A2F8E2F912F9F1BB0E1AB2EA7E21B
:10384000BA2ECC24DD24EE24FF2400E010E00E94F8
:103850005E00FDE2AF2EE1E3BE2ECC24C3940E94B5
:10386000E002952FB901842FDF91CF911F910F9125
:10387000FF90EF90DF90CF90BF90AF909F908F9090
:103880007F906F905F904F903F902F9008958F9210
:103890009F92AF92BF92CF92DF92EF92FF920F93DF
:1038A0001F93CF93DF934C01009749F420E030E061
:1038B00040E050E060E070E080E090E09BC08091EC
:1038C000240690912506A0912606B0912706C09166
:1038D0008400D0918500C430D10540F48091240645
:1038E00090912506A0912606B09127065C016D01F6
:1038F0009C01A60160E070E080E090E000E10E94A1
:103900005901122F032FA42EF52EE62ED72EC82EE6
:10391000B92E9E011C2B032BB40180E090E02DE218
:1039200031E341E050E0DAD02AE030E040E050E01E
:10393000F4D0DA01C901BB0F880B982FDC01982F56
:10394000F82FB82FA82F912E920E61E0911608F053
:1039500060E0202F230F71E0201708F070E0362F71
:10396000320F61E0321708F060E0762B2A2D240F29
:10397000E1E02A1508F0E0E0472F420F61E042172E
:1039800008F060E0E62B2F2D250F71E02F1508F0D1
:1039900070E05E2F520F61E0521708F060E0762B66
:1039A0008E2D890FE1E08E1508F0E0E0672F680F9B
:1039B00071E0681708F070E0E72B8D2D8F0FF1E0B4
:1039C0008D1508F0F0E07E2F780FE1E0781708F011
:1039D000E0E0FE2B8C2D8B0FE1E08C1508F0E0E091
:1039E000F80F91E0F81708F090E09E2BAB0D292D11
:1039F0008F2F9A0FDF91CF911F910F91FF90EF9032
:103A0000DF90CF90BF90AF909F908F900895AF922E
:103A1000BF92CF92DF92EF92FF920F931F93CF93BB
:103A2000DF938091240690912506A0912606B091FF
:103A30002706C0918400D0918500C430D10540F4A0
:103A40008091240690912506A0912606B091270624
:103A50005C016D019C01A60160E070E080E090E0F7
:103A600000E10E9459015E012C2B3B29DF91CF918F
:103A70001F910F91FF90EF90DF90CF90BF90AF908C
:103A800008951092C5008CE08093C40088E980936B
:103A9000C1008EE38093C2008FE694E090932B06E2
:103AA00080932A060895982F8091C00085FFFCCF4F
:103AB0009093C6000895982F8A3039F48091C00001
:103AC00085FFFCCF8DE08093C6008091C00085FF0C
:103AD000FCCF9093C60080E090E00895629FD001F3
:103AE000739FF001829FE00DF11D649FE00DF11DB9
:103AF000929FF00D839FF00D749FF00D659FF00D68
:103B00009927729FB00DE11DF91F639FB00DE11D54
:103B1000F91FBD01CF011124089597FB092E052639
:103B20000ED057FD04D014D00AD0001C38F45095A4
:103B30004095309521953F4F4F4F5F4F0895F6F7D1
:103B400090958095709561957F4F8F4F9F4F089509
:103B5000A1E21A2EAA1BBB1BFD010DC0AA1FBB1F91
:103B6000EE1FFF1FA217B307E407F50720F0A21B03
:103B7000B30BE40BF50B661F771F881F991F1A9470
:103B800069F760957095809590959B01AC01BD019A
:103B9000CF0108952F923F924F925F926F927F9242
:103BA0008F929F92AF92BF92CF92DF92EF92FF924D
:103BB0000F931F93CF93DF93CDB7DEB7CA1BDB0BF9
:103BC0000FB6F894DEBF0FBECDBF09942A8839889E
:103BD00048885F846E847D848C849B84AA84B984A5
:103BE000C884DF80EE80FD800C811B81AA81B981B1
:103BF000CE0FD11D0FB6F894DEBF0FBECDBFED01C5
:103C00000895EE0FFF1F0590F491E02D0994FC013B
:103C100088279927E89421912032E9F3293010F080
:103C20002E30C8F32B3239F02D3231F4689403C0B2
:103C300019D0820F911D219120532A30C8F31EF410
:103C4000909581959F4F0895FB01DC0141505040B4
:103C500030F08D910190801919F40020B9F7881B7C
:103C6000990B08957AE0979F902D879F802D910D55
:103C700011240895A0E0B0E0EFE3FEE19BCFFE0148
:103C800035966191719180912A0690912B06AF0132
:103C900038D02096E2E0AACF0F931F93CF93DF9303
:103CA0008C01E0912A06F0912B06838181FF21C0CF
:103CB000C0E0D0E00DC0E0912A06F0912B062085EF
:103CC0003185BF01F9010995892B11F0CFEFDFEFA5
:103CD000F80181918F01882371F7E0912A06F09114
:103CE0002B06208531858AE0BF01F9010995892BD2
:103CF00011F0CFEFDFEFCE01DF91CF911F910F9148
:103D00000895ABE0B0E0E6E8FEE144CF3C012B01D2
:103D10005A01FC0117821682838181FD03C06FEF77
:103D20007FEFB9C19AE0892E1E010894211C311C35
:103D3000F3012381F20123FD859123FF81912F015E
:103D4000882309F4A5C1853239F423FD859123FF29
:103D500081912F01853221F490E0B301B6D1E8CFF3
:103D6000982FFF24EE249924FFE1FF15D0F09B3219
:103D700069F09C3228F4903259F0933291F40EC0DD
:103D80009D3249F0903369F441E024C052E0F52AB5
:103D900084E0F82A28C098E0F92A25C0E0E1FE2A4C
:103DA00022C0F7FC29C0892F80538A3070F4F6FEB8
:103DB00005C0989C902C1124980E15C0E89CE02C0E
:103DC0001124E80EF0E2FF2A0EC09E3229F4F6FC20
:103DD0005FC140E4F42A07C09C3619F450E8F52A84
:103DE00002C0983649F4F20123FD959123FF919189
:103DF0002F01992309F0B8CF892F8554833018F00B
:103E00008052833038F444E050E0A40EB51E5FE3E6
:103E100059830FC0933631F0933779F0933509F019
:103E200052C01FC0F5018081898342E050E0A40E9A
:103E3000B51E610101E010E011C0F501C080D18024
:103E4000F6FC03C06FEF7FEF02C0692D70E042E027
:103E500050E0A40EB51EC6012DD18C015FE7F522FE
:103E600013C0F501C080D180F6FC03C06FEF7FEF77
:103E700002C0692D70E042E050E0A40EB51EC601FC
:103E80000ED18C0150E8F52AF3FE06C018C080E27E
:103E900090E0B3011AD1EA948E2D90E0081719072B
:103EA000B0F30DC0F601F7FC8591F7FE81916F012B
:103EB00090E0B3010AD1E110EA94015010400115DD
:103EC000110581F7E2C0943611F0993661F5F7FEDD
:103ED00008C0F501208131814281538184E090E066
:103EE0000AC0F501808191819C01442737FD4095EE
:103EF000542F82E090E0A80EB91E9FE6F92257FFEA
:103F000009C050954095309521953F4F4F4F5F4FD9
:103F1000E0E8FE2ACA01B901A1012AE030E001D19E
:103F2000D82ED2183FC0953729F41F2D1F7E2AE0C6
:103F300030E01DC01F2D197F9F3661F0903720F4AF
:103F4000983509F0A5C00FC0903739F0983709F0BF
:103F50009FC004C028E030E00AC0106114FD146066
:103F600020E130E004C014FD166020E132E017FFCC
:103F700008C0F501608171818281938144E050E045
:103F800008C0F50180819181BC0180E090E042E0B1
:103F900050E0A40EB51EA101C4D0D82ED2188FE7D0
:103FA000F82EF122F6FE0BC05EEFF522D91438F49C
:103FB000F4FE07C0F2FC05C08FEEF82202C01D2DF2
:103FC00001C0192DF4FE0DC0FE01ED0DF11D808123
:103FD000803319F499EEF92208C01F5FF2FE05C084
:103FE00003C08F2D867809F01F5F0F2DF3FC13C0DF
:103FF000F0FE0EC01E1510F09D2C0AC09D2C9E0CCC
:10400000911A1E2D05C080E290E0B3015ED01F5FC3
:104010001E15C8F304C01E1510F4E11A01C0EE24E9
:1040200004FF0EC080E390E0B3014FD002FF1BC03D
:1040300001FD03C088E790E00EC088E590E00BC06A
:10404000802F867881F001FF02C08BE201C080E200
:10405000F7FC8DE290E0B30138D005C080E390E03A
:10406000B30133D09A94D914C8F3DA94F101ED0D69
:10407000F11D808190E0B30128D0DD20B1F705C0AB
:1040800080E290E0B30121D0EA94EE20C9F750CE4F
:10409000F30166817781CB012B96E2E197CDFC019C
:1040A0000590615070400110D8F7809590958E0F63
:1040B0009F1F0895FC016150704001900110D8F7D6
:1040C000809590958E0F9F1F08950F931F93CF9308
:1040D000DF938C01EB018B8181FF1BC082FF0DC040
:1040E0002E813F818C819D812817390764F4E881F6
:1040F000F9810193F983E88306C0E885F985802F6B
:104100000995892B31F48E819F8101969F838E833F
:1041100002C00FEF1FEFC801DF91CF911F910F91E8
:104120000895FA01AA27283051F1203181F1E8944D
:104130006F936E7F6E5F7F4F8F4F9F4FAF4FB1E09A
:104140003ED0B4E03CD0670F781F891F9A1FA11D95
:10415000680F791F8A1F911DA11D6A0F711D811D96
:10416000911DA11D20D009F468943F912AE0269F5B
:1041700011243019305D3193DEF6CF010895462FBA
:104180004770405D4193B3E00FD0C9F7F6CF462F9B
:104190004F70405D4A3318F0495D31FD4052419304
:1041A00002D0A9F7EACFB4E0A695979587957795C1
:1041B0006795BA95C9F700976105710508959B0148
:1041C000AC010A2E06945795479537952795BA95D1
:1041D000C9F7620F731F841F951FA01D0895F894DF
:0241E000FFCF0F
:1041E2000A207465737454696D6572282564290008
:1041F2000A20646966664D696C6C6973203D2025EE
:104202006C64007465737420007365744A6F623164
:10421200200073656E6420006F6B2E2E2E0A0D0037
:104222006661696C65642E0A0D000A20556E6B6E1C
:104232006F776E20636F6D6D616E642E00537461D3
:1042420072742041544D4547413332382E000A6181
:10425200746D6567613332383E0053746172742045
:104262004E524632344C30315020746573742E2EC7
:104272002E003C4241434B5350414345204E4F5444
:1042820020535550504F525445443E000A206A6F05
:104292006220312065786563757465004F4253452D
:1042A2005256455F54583D253032783A20504F4C93
:1042B200535F434E543D2578204152435F434E5451
:1042C2003D25780D0A005354415455530909203DA8
:1042D200203078253032782052585F44523D25787C
:1042E2002054585F44533D2578204D41585F525425
:1042F2003D25782052585F505F4E4F3D257820541F
:10430200585F46554C4C3D25780D0A00777269740A
:10431200655F726567697374657228253032782C1F
:1043220025303278290D0A00464541545552453D03
:1043320025690D0A006F6273657276655F74782075
:104342003D20253032780D0A002E2E2E4F4B2E0D99
:104352000A005B41636B5061636B65745D2061634E
:104362006B5F7061796C6F61645F6C656E677468B6
:10437200203D2025640D0A002E2E2E4661696C65B3
:10438200640D0A002573092563203D002030780062
:1043920025303278000D00203078253032780052F6
:1043A200585F414444525F50302D310052585F41B2
:1043B2004444525F50322D350054585F41444452B8
:1043C2000052585F50575F50302D3600454E5F41C6
:1043D2004100454E5F5258414444520052465F43A9
:1043E200480052465F534554555000434F4E46498C
:1043F200470044594E50442F4645415455524500BA
:1044020044617461205261746509203D2025730D59
:104412000A004D6F64656C0909203D2025730D0A61
:1044220000435243204C656E67746809203D202585
:10443200730D0A00504120506F77657209203D20AC
:1044420025730D0A000000000000000000000102B8
:10445200020303030304040404040404040505051D
:1044620005050505050505050505050505060606F7
:1044720006060606060606060606060606060606DA
:1044820006060606060606060606060606070707C7
:1044920007070707070707070707070707070707AA
:1044A200070707070707070707070707070707079A
:1044B200070707070707070707070707070707078A
:1044C2000707070707070707070707070708080877
:1044D200080808080808080808080808080808085A
:1044E200080808080808080808080808080808084A
:1044F200080808080808080808080808080808083A
:104502000808080808080808080808080808080829
:104512000808080808080808080808080808080819
:104522000808080808080808080808080808080809
:1045320008080808080808080808080808080808F9
:104542000808080808080808080808080801000000
:10455200000002000000005B1D00000000000102DC
:104562000304050A0B0C0D0E0F111213141516A7D6
:1045720004AD04B304BB04C404CE04D704DE04E6D1
:1045820004ED04F404FC04314D42505300324D4218
:104592005053003235304B425053006E5246323443
:1045A2004C3031006E524632344C30312B0044696B
:1045B2007361626C6564003820626974730031361D
:1045C20020626974730050415F4D494E0050415F53
:1045D2004C4F570050415F484947480050415F4D9A
:0445E200415800003C
:00000001FF
