:1000000034C000005AC0000058C0000056C00000B4
:1000100054C0000052C0000050C000004EC000009C
:100020004CC000004AC0000048C0000046C00000AC
:1000300044C000000C94CA1340C000003EC0000041
:100040003CC000003AC000000C94EE1336C0000023
:1000500034C0000032C0000030C000002EC00000DC
:100060002CC000002AC00000B81011241FBECFEF22
:10007000D8E0DEBFCDBF15E0A0E0B1E0E0E1F3E401
:1000800002C005900D92A031B107D9F716E0A0E1AA
:10009000B5E001C01D92AA33B107E1F710E0CAE64E
:1000A000D0E004C02297FE010E949A1EC836D107F4
:1000B000C9F70E945D120C948621A2CFA0E3B0E0A4
:1000C000E4E6F0E00C94611EA8E04E010894811C67
:1000D000911CF401BA2F1192BA95E9F729833A835A
:1000E0004B835C836D837E838F839887CE010996D3
:1000F000FC011192AA95E9F7A986BA86CB86DC861F
:10010000ED86FE860F87188B29813A814B815C81B1
:100110002DA73EA74FA758AB79018A018FEF9FEF1C
:10012000A0E0B0E0E822F9220A231B231A014424AC
:10013000552429853A854B855C8529A73AA74BA785
:100140005CA759016A01A822B922CA22DB223A011E
:1001500088249924C601B501A80197010E94051EB3
:100160006DA37EA38FA398A7C401B3010E94051EAF
:1001700069A37AA38BA39CA3C601B501A201910137
:100180000E94051E7B018C01C401B3010E94051E63
:100190005B016C0189A19AA1ABA1BCA18E0D9F1D31
:1001A000A01FB11F89A39AA3ABA3BCA32DA13EA1FD
:1001B0004FA158A5CA01AA27BB2729A13AA14BA143
:1001C0005CA1280F391F4A1F5B1F29A33AA34BA329
:1001D0005CA32E153F054007510740F480E090E0F6
:1001E000A1E0B0E0A80EB91ECA1EDB1E89A19AA12B
:1001F000ABA1BCA19D01442755272A0D3B1D4C1DD9
:100200005D1D2D8F3E8F4F8F58A36C01BB24AA24F8
:100210008DA19EA1AFA1B8A5A070B070A80EB91E07
:10022000CA1EDB1EA98EBA8ECB8EDC8E9A8C8B8C6E
:100230007C8C9E8D6F8D78A1FE01719688E0DF0128
:100240001D928A95E9F72D8B9E8B6F8B788F2D856C
:100250003E854F8558896DA57EA58FA598A90E94DA
:10026000051E7B018C012D813E814F81588569A53A
:100270007AA58BA59CA50E94051EE60EF71E081FF9
:10028000191F6D897E898F89988D6E0D7F1D801F46
:10029000911F6D8B7E8B8F8B988FEE892A2D392D38
:1002A000482D572D7E2F8F89988DE096E2E10C9492
:1002B0007D1EEF92FF920F93DF93CF93CDB7DEB702
:1002C00060970FB6F894DEBF0FBECDBFA82F0023F6
:1002D00009F461C07E010894E11CF11C88E0F7017B
:1002E00011928A95E9F729833A834B835C836D8366
:1002F0007E83AF83988780E2801BE82FFF27E7FD8E
:10030000F09549815A816B817C81181684F0198699
:100310001A861B861C86882799278E1B9F0B04C074
:10032000440F551F661F771F8A95D2F728C0202FCC
:10033000332727FD3095DB01CA01022E04C0880F48
:10034000991FAA1FBB1F0A94D2F789879A87AB8788
:10035000BC8704C07695679557954795EA95D2F77F
:100360008D819E81AF81B88504C0880F991FAA1F17
:10037000BB1F2A95D2F7482B592B6A2B7B2B4D8715
:100380005E876F87788B29853A854B855C856D857F
:100390007E85AF8598898A2F60960FB6F894DEBF68
:1003A0000FBECDBFCF91DF910F91FF90EF900895D9
:1003B000EF92FF920F931F937B018C0120E030E0BE
:1003C00040E05FE40E94C40C88238CF0C801B701B0
:1003D00020E030E040E05FE40E94A10A0E947A0D34
:1003E0009B01AC01205030404040504806C0C8013D
:1003F000B7010E947A0D9B01AC01B901CA011F919E
:100400000F91FF90EF900895A2E0B0E0EAE0F2E0F3
:100410000C94611E122FB32EA42E952E862E372EED
:10042000282E9A83C22ED32EE42EF52EA7019601F4
:1004300060E070E080E090E02117A1F43B1591F4BA
:100440004A1581F4591571F4681561F4731551F466
:10045000821541F4AA819A1729F4C701B6010E94B6
:10046000CD0DAAC0212F3B2D4A2D592D682D732D5E
:10047000822D9A8100E20E94440EC901DA01803087
:10048000E0E09E07E1E0AE07E0E0BE0780F48F3FCA
:100490009105A105B10531F028F028E030E040E0F9
:1004A00050E016C020E030E040E050E011C0803065
:1004B000F0E09F07F0E0AF07F1E0BF0728F028E188
:1004C00030E040E050E004C020E130E040E050E0A7
:1004D000022E04C0B695A795979587950A94D2F7F2
:1004E000FC01E758FC4F808129013A01480E511C5C
:1004F000611C711C4982212F3B2D4A2D592D682DDD
:10050000732D822D9A81042D0E94440EC901DA01B7
:100510004C015D0180E290E08419950904C0CC0C87
:10052000DD1CEE1CFF1C8A95D2F7C114D104E10436
:10053000F10441F081E090E0A0E0B0E0882A992A3F
:10054000AA2ABB2A90E2491651046104710459F4A5
:100550000F2EF0E0EF2EF0E0FF2EF0E80F2FFFE47B
:100560001F2FF02D21C0AFE14A1651046104710420
:1005700059F40F2EF0E0EF2EF0E0FF2EF0E00F2FF9
:10058000FFE41F2FF02D10C061E070E080E090E0EC
:10059000098004C0660F771F881F991F0A94D2F73D
:1005A0000E941E0D7B018C01C501B4010E94CD0D7E
:1005B000A80197010E94F70A2296E2E10C947D1EA1
:1005C000AEE5B0E0E6EEF2E00C94611EA8E04E016C
:1005D0000894811C911CF4016A2E11926A94E9F727
:1005E00029833A834B835C836D837E838F839887D3
:1005F000CE010996FC011192AA95E9F7A986BA865F
:10060000CB86DC86ED86FE860F87188B29843A849C
:100610004B845C84ED84FE840F85188969807A8020
:100620008B809C806DA67EA68FA698AA6D807E800A
:100630008F809884E114F1040105110509F0B3C31A
:10064000621473048404950408F03DC100E0201690
:1006500000E0300601E0400600E0500688F41FEF9D
:10066000211631044104510439F030F048E0E42E01
:10067000F12C012D112D18C0EE24FF24870114C088
:1006800020E0221620E0320620E0420621E0520659
:1006900030F038E1E32EF12C012D112D05C020E1C1
:1006A000E22EF12C012D112DD201C1010E2C04C01E
:1006B000B695A795979587950A94D2F787589C4F3A
:1006C000DC012C9180E290E0A0E0B0E08E199F095F
:1006D000A00BB10B7C018D01E21AF108010911098F
:1006E000E114F10401051105A1F10E2C04C0220C46
:1006F000331C441C551C0A94D2F7A40193010E2C00
:1007000004C0220F331F441F551F0A94D2F780E202
:1007100090E08E199F096DA47EA48FA498A804C0B0
:1007200096948794779467948A95D2F7622A732A6D
:10073000842A952AADA4BEA4CFA4D8A804C0AA0C2C
:10074000BB1CCC1CDD1CEA94D2F7ADA6BEA6CFA67E
:10075000D8AA6201EE24FF24CDAADEAAEFAAF8AE41
:10076000920181012070307009AF1AAF2BAF3CAFFE
:10077000C401B301A70196010E943F1E7B018C01B9
:10078000C401B3012DA93EA94FA958AD0E943F1E37
:10079000C901DA013C014D01C401B30129AD3AADF3
:1007A0004BAD5CAD0E94051E9B01AC018701FF248F
:1007B000EE24ADA4BEA4CFA4D8A8C601AA27BB2707
:1007C00057016801A82AB92ACA2ADB2AA216B30649
:1007D000C406D506E0F40894610871088108910800
:1007E000A20CB31CC41CD51CA214B304C404D504AD
:1007F00070F0A216B306C406D50648F40894610842
:10080000710881089108A20CB31CC41CD51CA21A43
:10081000B30AC40AD50AC601B5012DA93EA94FA93C
:1008200058AD0E943F1E7B018C01C601B5012DA968
:100830003EA94FA958AD0E943F1EC901DA015C01D3
:100840006D01C601B50129AD3AAD4BAD5CAD0E945D
:10085000051E9B01AC018701FF24EE248DA59EA5FA
:10086000AFA5B8A9A070B070E82AF92A0A2B1B2BF3
:10087000E216F30604071507C0F40894A108B108AE
:10088000C108D108E20CF31C041D151DE214F30489
:100890000405150550F0E216F3060407150728F4C1
:1008A0000894A108B108C108D108D3019927882765
:1008B00086017501E82AF92A0A2B1B2BE9AAFAAA54
:1008C0000BAB1CABCFC4211431044104510471F4AF
:1008D00061E070E080E090E020E030E040E050E057
:1008E0000E943F1EC901DA011C012D0100E0201603
:1008F00000E0300601E0400600E0500688F41FEFFB
:10090000211631044104510431F028F048E050E050
:1009100060E070E017C040E050E060E070E012C0BE
:1009200020E0221620E0320620E0420621E05206B6
:1009300028F048E150E060E070E004C040E150E0A1
:1009400060E070E0D201C101042E04C0B695A79505
:10095000979587950A94D2F787589C4FDC012C9184
:10096000E0E2EE2EF12C012D112DD801C701841BE0
:10097000950BA60BB70B821B9109A109B109009732
:10098000A105B10561F464015301A218B308C408BC
:10099000D50831E0632E712C812C912C1EC16F96ED
:1009A0008FAF6F97082E04C0220C331C441C551CBB
:1009B0000A94D2F7EE2DE81B640153010E2E04C0F9
:1009C000D694C794B794A7940A94D2F7A40193013C
:1009D0006F960FAC6F9704C0220F331F441F551F33
:1009E0000A94D2F76DA47EA48FA498A80E2E04C0FA
:1009F00096948794779467940A94D2F7840173014C
:100A0000E22AF32A042B152BE9A6FAA60BA71CA7AA
:100A1000320188249924920181012070307021963E
:100A20000CAF1DAF2EAF3FAF2197C601B501A4019A
:100A300093010E943F1E7B018C01C601B501A401F8
:100A400093010E943F1EC901DA0125968CAF9DAF2C
:100A5000AEAFBFAF2597BC01CD0121962CAD3DAD0A
:100A60004EAD5FAD21970E94051E9B01AC01870131
:100A7000FF24EE24A9A4BAA4CBA4DCA4C601AA270F
:100A8000BB275C016D01AE28BF28C02AD12AA2165F
:100A9000B306C406D50660F525966CAD7DAD8EAD6A
:100AA0009FAD2597615070408040904025966CAF77
:100AB0007DAF8EAF9FAF2597A20CB31CC41CD51C75
:100AC000A214B304C404D50498F0A216B306C40655
:100AD000D50670F4615070408040904025966CAF10
:100AE0007DAF8EAF9FAF2597A20CB31CC41CD51C45
:100AF000A21AB30AC40AD50AC601B501A40193011A
:100B00000E943F1E7B018C01C601B501A401930127
:100B10000E943F1EC901DA013C014D01C401B3012D
:100B200021962CAD3DAD4EAD5FAD21970E94051EC7
:100B30009B01AC018701FF24EE2489A59AA5ABA5F2
:100B4000BCA5A070B07057016801A82AB92ACA2AAA
:100B5000DB2AA216B306C406D506E0F408946108A1
:100B6000710881089108A20CB31CC41CD51CA214E6
:100B7000B304C404D50470F0A216B306C406D506A7
:100B800048F408946108710881089108A20CB31C0C
:100B9000C41CD51C8DA59EA5AFA5B8A96F960FAC9A
:100BA0006F9704C0880F991FAA1FBB1F0A94D2F722
:100BB0008DA79EA7AFA7B8ABA21AB30AC40AD50ADD
:100BC0002596ECACFDAC0EAD1FAD2597D70199274E
:100BD0008827682A792A8A2A9B2A82012227332792
:100BE00029960CAF1DAF2EAF3FAF2997A2019101FF
:100BF000407050702D962CAF3DAF4EAF5FAF2D972C
:100C0000C601B50129962CAD3DAD4EAD5FAD29971E
:100C10000E943F1E7B018C01C601B50129962CADB7
:100C20003DAD4EAD5FAD29970E943F1EC901DA016F
:100C300061968CAF9DAFAEAFBFAF6197BC01CD01E8
:100C40002D962CAD3DAD4EAD5FAD2D970E94051E8E
:100C50009B01AC018701FF24EE24ADA4BEA4CFA468
:100C6000D8A8C601AA27BB2757016801A82AB92A14
:100C7000CA2ADB2AA216B306C406D50660F5619619
:100C80006CAD7DAD8EAD9FAD619761507040804081
:100C9000904061966CAF7DAF8EAF9FAF6197A20C15
:100CA000B31CC41CD51CA214B304C404D50498F00E
:100CB000A216B306C406D50670F461507040804099
:100CC000904061966CAF7DAF8EAF9FAF6197A20CE5
:100CD000B31CC41CD51CA21AB30AC40AD50AC60187
:100CE000B50129962CAD3DAD4EAD5FAD29970E9463
:100CF0003F1E7B018C01C601B50129962CAD3DAD8F
:100D00004EAD5FAD29970E943F1EC901DA015C011B
:100D10006D01C601B5012D962CAD3DAD4EAD5FAD5B
:100D20002D970E94051E9B01AC018701FF24EE2434
:100D30008DA59EA5AFA5B8A9A070B070E82AF92A24
:100D40000A2B1B2BE216F30604071507C0F40894C0
:100D5000A108B108C108D108E20CF31C041D151D3F
:100D6000E214F3040405150550F0E216F306040737
:100D7000150728F40894A108B108C108D1086196A4
:100D8000ECACFDAC0EAD1FAD6197D701992788275C
:100D900096018501082B192B2A2B3B2B09AB1AAB8B
:100DA0002BAB3CAB62C26E147F048006910608F444
:100DB00051C220E0E21620E0F20621E0020720E026
:100DC000120788F43FEFE316F1040105110531F035
:100DD00028F048E050E060E070E017C040E050E0EC
:100DE00060E070E012C040E0E41640E0F40640E04D
:100DF000040741E0140728F048E150E060E070E0AB
:100E000004C040E150E060E070E0D801C701042E6A
:100E100004C0B695A795979587950A94D2F78758F9
:100E20009C4FDC012C9130E2A32EB12CC12CD12C93
:100E3000D601C501841B950BA60BB70B821B91092C
:100E4000A109B1090097A105B10589F4E614F704D9
:100E50000805190508F4F2C16DA47EA48FA498A812
:100E6000621473048404950408F0E8C1F3C16E961B
:100E70008FAF6E97082E04C0EE0CFF1C001F111FD1
:100E80000A94D2F76A2D681BD201C101062E04C054
:100E9000B695A795979587950A94D2F75C016D0151
:100EA000AE28BF28C02AD12AADA2BEA2CFA2D8A602
:100EB000720161016E960FAC6E9704C0CC0CDD1C04
:100EC000EE1CFF1C0A94D2F7C9A2DAA2EBA2FCA284
:100ED00064015301062E04C0D694C794B794A79416
:100EE0000A94D2F7D401C3016E960FAC6E9704C07A
:100EF000880F991FAA1FBB1F0A94D2F7EDA4FEA466
:100F00000FA518A904C016950795F794E7946A955C
:100F1000D2F737014801682A792A8A2A9B2A6D8EDE
:100F20007E8E8F8E98A2EDA0FEA00FA118A538018D
:100F300088249924980187012070307065960CAF41
:100F40001DAF2EAF3FAF6597C601B501A401930158
:100F50000E943F1E7B018C01C601B501A4019301D3
:100F60000E943F1EC901DA011C012D01C201B1011D
:100F700065962CAD3DAD4EAD5FAD65970E94051EEB
:100F80009B01AC018701FF24EE24AD8CBE8CCF8C7D
:100F9000D8A0C601AA27BB2757016801A82AB92AE9
:100FA000CA2ADB2AA216B306C406D50600F50894A1
:100FB0002108310841085108EDA0FEA00FA118A595
:100FC000AE0CBF1CC01ED11EAE14BF04C006D1069D
:100FD00070F0A216B306C406D50648F4089421089A
:100FE000310841085108AE0CBF1CC01ED11EA21A08
:100FF000B30AC40AD50AC601B501A40193010E942F
:101000003F1E7B018C01C601B501A40193010E9422
:101010003F1EC901DA013C014D01C401B3016596CF
:101020002CAD3DAD4EAD5FAD65970E94051E9B0199
:10103000AC018701FF24EE248D8D9E8DAF8DB8A16C
:10104000A070B07057016801A82AB92ACA2ADB2A01
:10105000A216B306C406D50600F508946108710807
:10106000810891086DA17EA18FA198A5A60EB71E3B
:10107000C81ED91EA616B706C806D90670F0A21655
:10108000B306C406D50648F40894610871088108BF
:101090009108A60EB71EC81ED91ED601C501821B17
:1010A000930BA40BB50B898F9A8FAB8FBC8FD1019B
:1010B0009927882764015301A82AB92ACA2ADB2A5A
:1010C000A9AABAAACBAADCAA860175012FEF3FEF25
:1010D00040E050E0E222F32204231523A601662714
:1010E00077276D964CAF5DAF6EAF7FAF6D97A9A0C0
:1010F000BAA0CBA0DCA06FEF7FEF80E090E0A6224B
:10110000B722C822D92289A19AA1ABA1BCA11D01F5
:1011100044245524C801B701A60195010E94051E6B
:1011200069966CAF7DAF8EAF9FAF6997C801B7016D
:10113000A20191010E94051E3B014C016D966CAD10
:101140007DAD8EAD9FAD6D97A60195010E94051EE8
:101150007B018C016D966CAD7DAD8EAD9FAD6D97B5
:10116000A20191010E94051E5B016C01A80197017B
:10117000260D371D481D591D69966CAC7DAC8EAC93
:101180009FAC6997C401AA27BB27280F391F4A1FA4
:101190005B1F2E153F054007510748F4E12CF12C49
:1011A00061E0062F112DAE0CBF1CC01ED11ECA015E
:1011B000AA27BB27BC01CD016A0D7B1D8C1D9D1D7F
:1011C000698C7A8C8B8C9C8C6616770688069906BF
:1011D00040F1661577058805990509F043C0D901E6
:1011E0009927882769962CAD3DAD4EAD5FAD6997C7
:1011F00040705070820F931FA41FB51F2DA53EA5F0
:101200004FA558A96E960FAC6E9704C0220F331FDE
:10121000441F551F0A94D2F7281739074A075B075E
:1012200008F509A91AA92BA93CA901501040204092
:10123000304009AB1AAB2BAB3CAB14C0662477240F
:10124000430121E030E040E050E029AB3AAB4BAB4A
:101250005CAB0BC066247724430119AA1AAA1BAA07
:101260001CAA03C0662477244301FE01719688E01E
:10127000DF011D928A95E9F7A9A8BAA8CBA8DCA836
:10128000A98ABA8ACB8ADC8A6D8A7E8A8F8A988EEE
:1012900029A93A894B895C89662D7E898F89988D29
:1012A000C25ADF4FE2E10C947D1EA0E0B0E0EBE516
:1012B000F9E00C94611EDC012B01FA019C91923043
:1012C00008F439C1EB018881823008F433C19430CD
:1012D00069F4843009F02FC111969C91119789818E
:1012E000981709F428C1A1E7B3E025C1843009F4B7
:1012F00021C18230A9F4923009F01DC19A01AD01DB
:1013000088E0EA010990AE01E90109929E0181504D
:10131000C1F7E201898111969C918923818308C1DB
:10132000923009F407C112962D903C901397EB016F
:101330008A819B811496AD90BD90CD90DC901797DB
:10134000EC80FD800E811F819101281B390BB901B2
:1013500037FF04C066277727621B730B6032710565
:101360000CF061C0121613066CF537014801062E09
:1013700004C096948794779467940A94D2F721E0F6
:1013800030E040E050E004C0220F331F441F551FDF
:101390006A95D2F721503040404050402E213F21E5
:1013A00040235123211531054105510521F021E04C
:1013B00030E040E050E079018A01E628F72808296A
:1013C00019293CC0232BD1F1260E371E35014601C9
:1013D000062E04C096948794779467940A94D2F763
:1013E00021E030E040E050E004C0220F331F441FF2
:1013F000551F6A95D2F721503040404050402A2175
:101400003B214C215D21211531054105510521F07C
:1014100021E030E040E050E059016A01A628B728F9
:10142000C828D9280BC0821593052CF01C01AA24CA
:10143000BB24650103C0EE24FF24870111969C9113
:10144000D20111968C91981709F445C0992339F06F
:10145000A80197012A193B094C095D0906C0A6019C
:1014600095012E193F09400B510B57FD08C0118201
:101470003382228224833583468357831DC081E0D3
:1014800081833382228288279927DC01821B930B78
:10149000A40BB50B84839583A683B7830DC0220F5D
:1014A000331F441F551F248335834683578382810E
:1014B000938101979383828324813581468157816B
:1014C000DA01C9010197A109B1098F5F9F4FAF4FA1
:1014D000BF4328F30BC0918333822282EA0CFB1CAA
:1014E0000C1D1D1DE482F5820683178383E0808333
:1014F000248135814681578157FF1AC0C901AA2727
:1015000097FDA095BA2F81709070A070B07056951D
:10151000479537952795822B932BA42BB52B848346
:101520009583A683B7838281938101969383828377
:10153000DF0101C0D201CD01CDB7DEB7E2E10C94ED
:101540007D1EA0E2B0E0E7EAFAE00C946D1E69832C
:101550007A838B839C832D833E834F835887E9E076
:10156000EE2EF12CEC0EFD1ECE010196B7012FD50B
:101570008E010F5E1F4FCE010596B80128D58A89CE
:1015800091E089278A8BC701B801AE01475E5F4FA2
:101590008CDE48D4A096E6E00C94891EA0E2B0E070
:1015A000E4EDFAE00C946D1E69837A838B839C834F
:1015B0002D833E834F835887F9E0EF2EF12CEC0EFC
:1015C000FD1ECE010196B70102D58E010F5E1F4FA1
:1015D000CE010596B801FBD4C701B801AE01475E44
:1015E0005F4F63DE1FD4A096E6E00C94891EA0E254
:1015F000B0E0EDEFFAE00C94611E69837A838B838F
:101600009C832D833E834F835887CE010196BE0174
:10161000675F7F4FDCD4CE010596BE016F5E7F4FC2
:10162000D6D49985923088F089898230C8F0943078
:1016300019F4823051F404C0843029F4923081F4DA
:1016400081E793E0C6C0923049F420E09A858A8908
:10165000981321E02A87CE010996BBC0823049F455
:1016600020E09A858A89981321E02A8BCE01419641
:10167000B0C02D843E844F8458886D887E888F88C2
:10168000988CEE24FF248701AA24BB24650140E046
:1016900050E060E070E0E0E0F0E0C1018170907047
:1016A000892BE9F0E60CF71C081D191D9A01AB0106
:1016B0002A0D3B1D4C1D5D1D80E090E0A0E0B0E0D8
:1016C000E614F7040805190520F481E090E0A0E095
:1016D000B0E0BA01A901480F591F6A1F7B1FAA0C6D
:1016E000BB1CCC1CDD1C97FE08C081E090E0A0E094
:1016F000B0E0A82AB92ACA2ADB2A3196E032F105DD
:1017000049F0660C771C881C991C569447943794B2
:101710002794C3CFFA85EA892B893C898B859C85E0
:10172000280F391F2E5F3F4F17C0CA01817090707C
:10173000892B61F016950795F794E79480E090E087
:10174000A0E0B0E8E82AF92A0A2B1B2B76956795CA
:10175000579547952F5F3F4F77FDE7CF0CC0440F5C
:10176000551F661F771F17FD4160EE0CFF1C001F01
:10177000111F21503040403090E0590790E0690738
:1017800090E4790760F32B8F3C8FDB01CA018F77E0
:101790009070A070B07080349105A105B10561F41E
:1017A00047FD0AC0E114F1040105110529F0405C70
:1017B0005F4F6F4F7F4F40781A8EFE1711F081E018
:1017C0008A8F4D8F5E8F6F8F78A383E0898FCE01D4
:1017D000499628D3A096E2E10C947D1EA8E1B0E0E2
:1017E000E4EFFBE00C94691E69837A838B839C830E
:1017F0002D833E834F835887B9E0EB2EF12CEC0EFE
:10180000FD1ECE010196B701E2D38E010F5E1F4F80
:10181000CE010596B801DBD32985223008F47EC0BD
:101820003989323010F4B8017CC08A859A898927B9
:101830008A87243011F0223031F4231709F06EC06A
:1018400061E773E06EC0343039F41D861E861F8652
:10185000188A1C861B8604C0323021F484E08987F4
:10186000B7015FC02B853C858B899C89281B390B70
:101870003C872B87ED84FE840F851889AD88BE8850
:10188000CF88D88CEA14FB040C051D0540F4EE0C3F
:10189000FF1C001F111F215030403C872B8720E088
:1018A00030E040E050E080E090E0A0E0B0E460E0B4
:1018B00070E0EA14FB040C051D0540F0282B392BC1
:1018C0004A2B5B2BEA18FB080C091D09B695A79556
:1018D00097958795EE0CFF1C001F111F6F5F7F4FC0
:1018E0006F31710531F7DA01C9018F779070A070FF
:1018F000B07080349105A105B10561F427FD0AC0DF
:10190000E114F1040105110529F0205C3F4F4F4F10
:101910005F4F20782D873E874F87588BBE01675FCA
:101920007F4FCB017FD26896EAE00C94851EA8E138
:10193000B0E0EDE9FCE00C946D1E69837A838B8343
:101940009C832D833E834F83588789E0E82EF12CBA
:10195000EC0EFD1ECE010196B70139D38E010F5E4C
:101960001F4FCE010596B80132D38985823038F0F9
:101970008989823020F0C701B801A1D301C08FEF5F
:101980006896E6E00C94891EA8E1B0E0EAECFCE081
:101990000C946D1E69837A838B839C832D833E8395
:1019A0004F83588789E0E82EF12CEC0EFD1ECE0106
:1019B0000196B7010CD38E010F5E1F4FCE01059625
:1019C000B80105D38985823038F08989823020F0CA
:1019D000C701B80174D301C08FEF6896E6E00C949C
:1019E000891EA8E1B0E0E7EFFCE00C946D1E69836E
:1019F0007A838B839C832D833E834F83588789E032
:101A0000E82EF12CEC0EFD1ECE010196B701DFD2BF
:101A10008E010F5E1F4FCE010596B801D8D2898581
:101A2000823038F08989823020F0C701B80147D36D
:101A300001C081E06896E6E00C94891EA8E0B0E061
:101A4000E4E2FDE00C946A1E9B01AC0183E0898313
:101A5000DA01C9018827B7FD83959927AA27BB27F3
:101A6000B82E211531054105510519F482E089830D
:101A700039C08823A9F0203080E0380780E048078B
:101A800080E8580729F460E070E080E09FEC2EC009
:101A9000EE24FF248701E21AF30A040B150B02C09F
:101AA00079018A018EE1C82ED12CDC82CB82ED82B5
:101AB000FE820F831887C801B70165D101971816F8
:101AC000190684F4082E04C0EE0CFF1C001F111F21
:101AD0000A94D2F7ED82FE820F831887C81AD90ABA
:101AE000DC82CB82BA82CE0101969CD12896E9E0B5
:101AF0000C94861EACE0B0E0E0E8FDE00C94711EB2
:101B000069837A838B839C83CE010196BE016B5FD0
:101B10007F4F5DD28D81823061F1823050F184300F
:101B200021F48E81882351F12EC02F81388537FD15
:101B300020C06E812F3131051CF06623F9F023C0DF
:101B40008EE190E0821B930B29853A854B855C855D
:101B500004C056954795379527958A95D2F7662301
:101B6000B1F050954095309521953F4F4F4F5F4FC5
:101B70000EC020E030E040E050E009C02FEF3FEF22
:101B80004FEF5FE704C020E030E040E050E8B901EB
:101B9000CA012C96E2E00C948D1EA8E0B0E0E3EDC3
:101BA000FDE00C94691E7B018C01611571058105B6
:101BB000910519F482E089835FC083E089838EE117
:101BC000C82ED12CDC82CB82ED82FE820F83188757
:101BD000C801B701D8D0FC013197F7FF3BC02227DD
:101BE00033272E1B3F0B57016801022E04C0D694E9
:101BF000C794B794A7940A94D2F740E050E060E00D
:101C000070E081E090E0A0E0B0E004C0880F991F90
:101C1000AA1FBB1F2A95D2F70197A109B1098E21EE
:101C20009F21A023B1230097A105B10521F041E038
:101C300050E060E070E04A295B296C297D294D83E2
:101C40005E836F8378878EE190E08E1B9F0B9C8371
:101C50008B8312C0309781F00E2E04C0EE0CFF1C57
:101C6000001F111F0A94D2F7ED82FE820F8318879E
:101C7000CE1ADF0ADC82CB821A82CE010196D2D044
:101C80002896EAE00C94851EEF92FF920F93DF9363
:101C9000CF93CDB7DEB760970FB6F894DEBF0FBE17
:101CA000CDBFA82F002309F461C07E010894E11C78
:101CB000F11C88E0F70111928A95E9F729833A83AC
:101CC0004B835C836D837E83AF83988780E2801B28
:101CD000E82FFF27E7FDF0954D815E816F817885C4
:101CE000181684F01D861E861F86188A8827992755
:101CF0008E1B9F0B04C076956795579547958A95DF
:101D0000D2F728C0202F332727FD3095DB01CA01E9
:101D1000022E04C0B695A795979587950A94D2F799
:101D20008D879E87AF87B88B04C0440F551F661FF1
:101D3000771FEA95D2F789819A81AB81BC8104C073
:101D4000B695A795979587952A95D2F7482B592B45
:101D50006A2B7B2B49875A876B877C8729853A8535
:101D60004B855C856D857E85AF8598898A2F6096C9
:101D70000FB6F894DEBF0FBECDBFCF91DF910F91AC
:101D8000FF90EF900895EF92FF920F931F937B01C6
:101D90008C0180E0E81680E0F80681E0080780E02A
:101DA000180788F48FEFE816F1040105110531F0EA
:101DB00028F088E090E0A0E0B0E017C080E090E07C
:101DC000A0E0B0E012C080E0E81680E0F80680E015
:101DD000080781E0180728F088E190E0A0E0B0E073
:101DE00004C080E190E0A0E0B0E020E230E040E01C
:101DF00050E0281B390B4A0B5B0B04C01695079566
:101E0000F794E7948A95D2F7F701E758FC4F808161
:101E1000281B310941095109C9011F910F91FF90F8
:101E2000EF900895DF92EF92FF920F931F93FC01C2
:101E3000E480F58006811781D1808081823048F46A
:101E400080E090E0A0E1B0E0E82AF92A0A2B1B2B01
:101E5000A5C0843009F49FC0823021F4EE24FF2411
:101E6000870105C0E114F1040105110519F4E0E052
:101E7000F0E096C0628173819FEF623879070CF0C1
:101E80005BC022E83FEF261B370B2A3131052CF0CF
:101E900020E030E040E050E02AC0B801A701022E67
:101EA00004C076956795579547950A94D2F781E0D7
:101EB00090E0A0E0B0E004C0880F991FAA1FBB1FEC
:101EC0002A95D2F70197A109B1098E219F21A0235C
:101ED000B1230097A105B10521F081E090E0A0E0D9
:101EE000B0E09A01AB01282B392B4A2B5B2BDA018E
:101EF000C9018F779070A070B07080349105A105F2
:101F0000B10539F427FF09C0205C3F4F4F4F5F4FA9
:101F100004C0215C3F4F4F4F5F4FE0E0F0E02030C6
:101F2000A0E03A07A0E04A07A0E45A0710F0E1E079
:101F3000F0E079018A0127C06038710564F5FB0182
:101F4000E158FF4FD801C7018F779070A070B07033
:101F500080349105A105B10539F4E7FE0DC080E498
:101F600090E0A0E0B0E004C08FE390E0A0E0B0E03B
:101F7000E80EF91E0A1F1B1F17FF05C016950795CF
:101F8000F794E794319687E016950795F794E794D0
:101F90008A95D1F705C0EE24FF248701EFEFF0E02A
:101FA0006E2F679566276795902F9F77D794DD24CE
:101FB000D7948E2F8695492F462B582F5D29B70130
:101FC000CA011F910F91FF90EF90DF900895FC01DF
:101FD000DB01408151812281622F6F7770E0221FE7
:101FE0002227221F9381892F880F822B282F30E0F0
:101FF000991F9927991F11969C93119721153105C7
:10200000A9F5411551056105710511F482E037C04C
:1020100082E89FEF13969C938E9312979A01AB01DF
:1020200067E0220F331F441F551F6A95D1F783E0E5
:102030008C930DC0220F331F441F551F12968D9194
:102040009C911397019713969C938E93129720302F
:1020500080E0380780E0480780E4580758F314967A
:102060002D933D934D935C93179708952F3F310522
:1020700079F4411551056105710519F484E08C93DB
:10208000089564FF03C081E08C9312C01C9210C0BD
:102090002F57304013963C932E93129783E08C93E6
:1020A00087E0440F551F661F771F8A95D1F770642C
:1020B00014964D935D936D937C93179708951F939A
:1020C000DC01FB019C91923008F447C08081823092
:1020D00008F443C0943051F411961C91843099F562
:1020E0008181682F70E0611B71093FC0843021F04D
:1020F000923031F48230B9F18181882389F12DC089
:1021000011961C9111978230F1F081811817D9F442
:1021100012962D913C911397828193818217930798
:1021200094F028173907BCF014968D919D910D906D
:10213000BC91A02D2481358146815781281739070C
:102140004A075B0718F4112341F00AC0821793076E
:10215000A407B50740F4112319F061E070E005C051
:102160006FEF7FEF02C060E070E0CB011F91089538
:1021700089E196E060C42F923F924F925F926F92F6
:102180007F928F929F92AF92BF92CF92DF92EF9207
:10219000FF920F931F937C0100D000D080E091E06C
:1021A000EDB7FEB792838183F482E3820E94D11E51
:1021B0000F900F900F900F900E949E1D922E832ED5
:1021C000742E652E562E472E382E292E00E010E054
:1021D000C801B701E2DC5B016C0120E030E04AEFAE
:1021E00054E405DA7B018C0120E030E040E85FE355
:1021F000F8DB88231CF461E070E022C0C801B7015D
:1022000020E03FEF4FE757E492DB1816ACF4C6012D
:10221000B50120E030E040E251E4E9D90E94D80164
:1022200088EC90E005C0FC013197F1F761507040F7
:1022300061157105C1F707C0C801B7010E94D80137
:10224000CB010197F1F7292D382D472D562D652DFE
:10225000742D832D922D0E94111C00D000D000D02F
:1022600020E131E0EDB7FEB73283218363837483CD
:10227000858396830E94D11E8DB79EB706960FB6B2
:10228000F8949EBF0FBE8DBF1F910F91FF90EF90EE
:10229000DF90CF90BF90AF909F908F907F906F9086
:1022A0005F904F903F902F900895CF92DF92EF92E2
:1022B000FF920F931F93DF93CF930F92CDB7DEB7AB
:1022C000CDB6DEB680910F06882309F4E7C080E121
:1022D00095E063E271E045E050E00E94BB1E00978C
:1022E00051F50DB71EB780910F0690E005972DB7F9
:1022F0003EB7281B390B0FB6F8943EBF0FBE2DBF5B
:102300004DB75EB74F5F5F4F25E00BC0E22FF0E0A7
:10231000DF01A05FBA4F8C91E40FF51F35978083E2
:102320002F5F80910F06281788F3CA010E949E1E16
:1023300022DFC801A2C080E195E069E271E048E0D7
:1023400050E00E94BB1E009709F047C0FDB6EEB6F4
:1023500080910F0690E00897EDB7FEB7E81BF90BE8
:102360000FB6F894FEBF0FBEEDBF4DB75EB74F5F1F
:102370005F4F28E00BC0E22FF0E0DF01A05FBA4F13
:102380008C91E40FF51F389780832F5F80910F06A3
:10239000281788F3CA010E949E1E8C010E94DE1C31
:1023A000209311063093120640931306509314069F
:1023B000609315067093160680931706909318067F
:1023C00010937A04009379042F2D3E2DC9010FB686
:1023D000F8949EBF0FBE8DBF61C080E195E062E3BF
:1023E00071E045E050E00E94BB1E009709F04BC031
:1023F0001DB70EB780910F0690E005972DB73EB739
:10240000281B390B0FB6F8943EBF0FBE2DBF2F5FB0
:102410003F4F95E00BC0E92FF0E0DF01A05FBA4F1E
:102420008C91E20FF31F359780839F5F80910F0699
:10243000981788F389E196E0D5D68FE6898389E1FC
:1024400096E0BE016F5F7F4F41E020E018D7882300
:1024500021F000D088E391E003C000D080E491E057
:10246000EDB7FEB7928381830E94D11E0F900F902B
:1024700089E196E0C5D6812F902F0FB6F8949EBFC4
:102480000FBE8DBF0BC000D08AE491E0EDB7FEB760
:10249000928381830E94D11E0F900F900FB6F89403
:1024A000DEBE0FBECDBE0F90CF91DF911F910F9179
:1024B000FF90EF90DF90CF9008952F923F924F9230
:1024C0005F926F927F928F929F92BF92CF92DF9294
:1024D000EF92FF920F931F93DF93CF930F92CDB79D
:1024E000DEB70E94D81D78940E94F41B3D9A45984F
:1024F00000D08DE591E0ADB7BEB712969C938E9358
:1025000011970E94D11E5EE6C52E51E0D52EEDB783
:10251000FEB7D282C1820E94D11E8AE791E0ADB798
:10252000BEB712969C938E9311970E94D11E0F9066
:102530000F9089E196E02ED789E196E06FE04FE0B9
:1025400090D489E196E068E088D289E196E063E082
:10255000CED489E196E068E7FBD589E196E001EE0B
:1025600010EF20EF30EF40EF50E060E070E055D525
:1025700089E196E061E042EDE42E30EFF32E00EFCA
:1025800020EF30E040E050E0D1D489E196E038D649
:1025900089E196E00E94021B109211061092120629
:1025A0001092130610921406109215061092160639
:1025B000109217061092180622E9222E21E0322EE0
:1025C000BC2CCD2C9CEA492E91E0592E3E0108945A
:1025D000611C711C8DEB882E81E0982E8091100675
:1025E00081FF19C000D0EDB7FEB7328221820E9470
:1025F000D11EADB7BEB71196BC9211971296CC9270
:102600000E94D11E10920F06809110068D7F80933C
:1026100010060F900F908091100680FF11C045DECC
:1026200000D0EDB7FEB7B182C2820E94D11E1092D7
:102630000F06809110068E7F809310060F900F90EA
:102640000E949E1D79018A01B62FA72FF82FE92F2E
:102650008091110690911206209113063091140674
:102660004091150650911606609117067091180654
:10267000892B822B832B842B852B862B872B09F48C
:102680004AC0709111066091120650911306409154
:102690001406309115062091160690911706809128
:1026A0001806E817C0F18E17D1F4F917A0F19F179B
:1026B000B1F4A21780F12A1791F4B31760F13B1718
:1026C00071F4141740F1411751F4051720F1501718
:1026D00031F4F61600F16F1511F4E716E0F04598A5
:1026E0001092110610921206109213061092140600
:1026F00010921506109216061092170610921806E0
:1027000000D0ADB7BEB712965C924E9211970E9460
:10271000D11E0F900F9089E196E017D5882309F418
:102720005DCF198289E196E0B30141E0E8D2182F2C
:1027300000D000D0EDB7FEB73196ADB7BEB7129658
:102740009C928E9211978981828313820E94D11E5E
:102750000F900F900F900F90112321F389818F36E6
:1027600009F03CCF459A8091790490917A040E94B7
:10277000DE1C2093110630931206409313065093EB
:1027800014066093150670931606809317069093AF
:10279000180624CF1F920F920FB60F9211242F9379
:1027A0003F934F935F936F937F938F939F93AF93D9
:1027B000BF93EF93FF930E94FD1BFF91EF91BF9199
:1027C000AF919F918F917F916F915F914F913F91C9
:1027D0002F910F900FBE0F901F9018951F920F9280
:1027E0000FB60F9211241F932F933F934F935F9334
:1027F0006F937F938F939F93AF93BF93EF93FF93C9
:102800001091C6001D3019F01F3759F404C0809193
:102810001006816003C080911006826080931006CC
:102820000DC0812F0E94EA1D80910F06E82FF0E075
:10283000E05FFA4F10838F5F80930F06FF91EF9157
:10284000BF91AF919F918F917F916F915F914F91C8
:102850003F912F911F910F900FBE0F901F901895D1
:102860008F929F92AF92BF92CF92DF92EF92FF92A0
:102870000F931F9359016A017B019801A501B601CD
:10288000C7010E9404025B016C012BEA3AEA4AE2AA
:1028900050E40E94F70A7B018C0120E030E040E820
:1028A0005FE39FD8882314F461E051C0C801B701E9
:1028B00020E030E04FE753E43AD818160CF043C05C
:1028C000C601B50120E030E04AE754E40E94EE0B77
:1028D0005B016C0120E030E04AEF54E40E94F70A0B
:1028E0007B018C0120E030E040E85FE37AD8882368
:1028F0001CF461E070E023C0C801B70120E03FEFA5
:102900004FE757E414D81816B4F4C601B50120E017
:1029100030E040E251E40E94F70A0E94D80188ECBE
:1029200090E005C0FC013197F1F7615070406115EE
:102930007105C1F70EC0C801B7010E94D801CB01D3
:102940000197F1F706C0C801B7010E94D8016A9546
:10295000F1F71F910F91FF90EF90DF90CF90BF9014
:10296000AF909F908F9008958F929F92AF92BF9259
:10297000CF92DF92EF92FF920F931F9359016A015A
:102980007B019801A501B601C7010E9404025B0109
:102990006C0120E030E04AEF54E40E94F70A7B012A
:1029A0008C0120E030E040E85FE31BD888231CF472
:1029B00061E070E024C0C801B70120E03FEF4FE7BD
:1029C00057E40E94970C1816B4F4C601B50120E034
:1029D00030E040E251E40E94F70A0E94D80188ECFE
:1029E00090E005C0FC013197F1F76150704061152E
:1029F0007105C1F707C0C801B7010E94D801CB011A
:102A00000197F1F71F910F91FF90EF90DF90CF901A
:102A1000BF90AF909F908F900895C1C60895D2C681
:102A20000895862FB6C6862FAEC6862FA6C6A2C626
:102A300008959AC60895FC0181E08083118280E2A6
:102A40008283138214821582168217821086118661
:102A500012861386148615860895FC01613208F0EB
:102A600060E262830895FF920F931F9307E216E0DE
:102A7000C80160E0DADFC80160E6D3DFC8016FEFAC
:102A8000D0DFF82EC80161E0D0DF8F2D1F910F91AC
:102A9000FF900895FF920F931F9307E216E0C8017D
:102AA00060E0C3DFC8016FEFBCDFF82EC80161E052
:102AB000BCDF8F2D1F910F91FF900895FF920F9310
:102AC0001F9307E216E0C80160E0AFDFC80161EEC6
:102AD000A8DFF82EC80161E0A8DF8F2D1F910F91AC
:102AE000FF900895FF920F931F9307E216E0C8012D
:102AF00060E09BDFC80162EE94DFF82EC80161E060
:102B000094DF8F2D1F910F91FF900895FF920F93E7
:102B10001F93CF93DF93FC019281142F941708F435
:102B2000192F8481882311F000E002C0092F011BB6
:102B3000EB0187E296E060E078DF87E296E061E60D
:102B400070DFF82E06C087E296E06FEF6ADF8993A8
:102B500011501123C1F705C087E296E06FEF61DFE6
:102B600001500023C9F787E296E061E05EDF8F2D18
:102B7000DF91CF911F910F91FF900895FF920F93D6
:102B80001F93CF93DF93FC01F22E9281142F9417A1
:102B900008F4192F8481882311F000E002C0092F66
:102BA000011BEB0187E296E060E03FDF87E296E001
:102BB0006F2D37DFF82E05C0699187E296E031DF8F
:102BC00011501123C9F705C087E296E060E029DFC4
:102BD00001500023C9F787E296E061E026DF8F2DE0
:102BE000DF91CF911F910F91FF9008950F931F9345
:102BF000CF93DF93162FEA01022F87E296E060E081
:102C000014DF1F71106287E296E0612F0ADF182F30
:102C100005C0699187E296E004DF01500023C9F7FF
:102C200087E296E061E001DF812FDF91CF911F9174
:102C30000F910895EF92FF921F93162F87E2E82ECF
:102C400086E0F82EC70160E0F0DE1F71C701612F3A
:102C5000E8DEC7016FEFE5DE182FC70161E0E5DEB2
:102C6000812F1F91FF90EF90089564E0E3CFFDDF87
:102C7000282F30E02F7030704AEF50E0B901649F88
:102C80009001659F300D749F300D112482958F70D7
:102C900090E00196A901489F9001499F300D589FEF
:102CA000300D1124C901089560E0C4DF8C7083FDEC
:102CB00002C080E0089582FD02C081E0089582E0B4
:102CC000089566E0B7DF982F9872903211F482E091
:102CD000089580E0983009F481E0089566E0AADF65
:102CE0008670863011F493E008C0843011F492E0CD
:102CF00004C090E0823009F491E0892F08950F9389
:102D00001F938C0103DFC80167E194DF81701F917D
:102D10000F9108950F931F93CF93DF93162FEA011E
:102D2000022F87E296E060E080DE1F7187E296E086
:102D3000612F77DE182F06C087E296E06FEF71DE15
:102D4000899301500023C1F787E296E061E06DDED0
:102D5000812FDF91CF911F910F91089570E08DB772
:102D60009EB70E970FB6F8949EBF0FBE8DBFEDB7FE
:102D7000FEB7319682EF91E0ADB7BEB712969C9345
:102D80008E93119773836283CB0156E09695879556
:102D90005A95E1F78170907095838483CB0145E06B
:102DA000969587954A95E1F7817090709783868311
:102DB000CB0134E0969587953A95E1F78170907054
:102DC00091878087CB0195958795877090709387C1
:102DD00082876170707075876487E3D78DB79EB7FF
:102DE0000E960FB6F8949EBF0FBE8DBF0895EF925A
:102DF000FF920F931F93F62EE42E00D000D000D048
:102E0000EDB7FEB7319688E392E0ADB7BEB7129644
:102E10009C938E9311976283138244831582C1D74A
:102E20008DB79EB706960FB6F8949EBF0FBE8DBFA6
:102E300007E216E0C80160E0F8DD9FE1F922A0E2B8
:102E4000FA2AC8016F2DEDDDF82EC8016E2DE9DDDF
:102E5000C80161E0EADD8F2D1F910F91FF90EF9087
:102E60000895262F4F702295207F242B64E0422F57
:102E7000BECF1F93CF93DF93EC01162F60E0DADE15
:102E8000482F437F112329F0113011F4486001C00D
:102E90004C60CE0160E0ABDFDF91CF911F910895D0
:102EA0000F931F93CF93DF93EC01162F66E0C2DEE2
:102EB0001882082F077D123011F4006206C011300D
:102EC00019F41883086001C01882CE0166E0402F13
:102ED0008EDFCE0166E0AEDE801711F481E002C025
:102EE000188280E0DF91CF911F910F9108951F9379
:102EF000CF93DF93EC01162F66E09CDE482F497FCD
:102F0000133061F0123011F4446009C0113011F433
:102F1000426005C0112319F0143009F44660CE0157
:102F200066E065DFDF91CF911F910895BF92CF9248
:102F3000DF92EF92FF920F931F93DF93CF93CDB762
:102F4000DEB728970FB6F894DEBF0FBECDBF6C0179
:102F5000B62EE982FA820B831C832D833E834F8336
:102F60005887662389F4F601E6828A8187838B81FC
:102F700080878C8181878D8182878E8183878F81F5
:102F800084878885858706C0F6E0F617B0F181E072
:102F9000681759F4EB2DF0E0E157FB4FC601608153
:102FA000AE014F5F5F4F25E00AC0E62FF0E0E1572A
:102FB000FB4FC6016081AE014F5F5F4F21E016DE1F
:102FC0000B2D10E0F801EB56FB4FC6016081F601B6
:102FD00042810DDFC60162E02DDE07571B4F21E065
:102FE00030E0F801008002C0220F331F0A94E2F79C
:102FF000482F422BC60162E0FADE28960FB6F894FD
:10300000DEBF0FBECDBFCF91DF911F910F91FF901B
:10301000EF90DF90CF90BF900895EF92FF920F93C3
:103020001F93DF93CF93CDB7DEB728970FB6F894F1
:10303000DEBF0FBECDBF7C0109831A832B833C8387
:103040004D835E836F8378878E010F5F1F4F6AE029
:10305000A80125E0CBDDC70160E1A80125E0C6DDC0
:10306000F7014281413208F040E2C70161E1BFDE71
:1030700028960FB6F894DEBF0FBECDBFCF91DF917B
:103080001F910F91FF90EF900895CF92DF92EF92F2
:10309000FF920F931F938B017A01690167E040E76C
:1030A000A6DE90E09C01E5E036952795EA95E1F7EC
:1030B0002170F801208374E0969587957A95E1F761
:1030C000282F2170F70120839695879596958795EF
:1030D0008170F60180831F910F91FF90EF90DF9038
:1030E000CF900895DF92EF92FF920F931F93CF93AB
:1030F000DF938C017B01CEDCC82FD0E0CE01A6E0AF
:1031000096958795AA95E1F7DD24D394D82280FF80
:1031100013C0E114F10431F0CE01959587958770C5
:10312000F7018083C80167E040E461DEC5FF04C0A9
:10313000C80167E040E25BDE8D2DDF91CF911F91EA
:103140000F91FF90EF90DF90089560E070E0CACF9C
:10315000462F603808F04FE765E049CECF92DF9206
:10316000EF92FF920F931F93CF93DF93EC016B01CC
:10317000E42EF22E60E05EDD482F4C7F4260CE01EF
:1031800060E035DE87E296E006E910E020E030E01E
:1031900040E050E060E070E063DBFF2011F420EAE3
:1031A00001C020EBCE01B6014E2DE8DC87E296E0AF
:1031B00061E039DC87E296E00AE010E020E030E0F0
:1031C00040E050E060E070E04BDB87E296E060E0DA
:1031D0002ADCDF91CF911F910F91FF90EF90DF904C
:1031E000CF9008950F931F938C0187E296E060E0E3
:1031F0001ADCC80163DCC80175DC1F910F910895CA
:103200000F931F93CF93DF93EC0160E013DD482F02
:103210004360CE0160E0EBDDCE0167E040E7E7DD33
:103220008E819F81892B9885892B9985892B9A85F9
:10323000892B9B85892B9C85892B9D85892B39F032
:10324000AE014A5F5F4FCE016AE025E0CFDCCE01E0
:1032500049DCCE0133DC87E296E061E0E4DB87E223
:1032600096E002E810E020E030E040E050E060E06E
:1032700070E0F6DADF91CF911F910F9108958F9250
:103280009F92AF92BF92CF92DF92EF92FF921F93E5
:10329000DF93CF9300D00F92CDB7DEB77C015EDF16
:1032A00087E296E0BCDBC701E2DC6C014E010894CA
:1032B000811C911CB1E6AB2EB2E0BB2EC70168E0C9
:1032C000A40121E027DD182F00D000D0EDB7FEB714
:1032D0003196ADB7BEB71296BC92AE921197898166
:1032E000828313825ED510730F900F900F900F9012
:1032F00009F03EC087E296E090DB8C159D05C0F595
:10330000DDCF85E792E000D0EDB7FEB792838183F1
:1033100048D50F900F90D70113968C918823C1F058
:10332000C701A1DBF701858300D000D0EDB7FEB760
:1033300031962EE732E0ADB7BEB712963C932E938E
:103340001197828313822DD50F900F900F900F90BD
:10335000812F0F900F900F90CF91DF911F91FF90D1
:10336000EF90DF90CF90BF90AF909F908F90089597
:1033700097012D5F3F4FC701BE016E5F7F4FAE01CA
:103380004D5F5F4F82DE1A81112309F0BACF84EAC4
:1033900092E0B9CF0F931F93CF93DF93EC0187E2B5
:1033A00096E047DB87E296E042DB87E296E060E06A
:1033B0003ADB87E296E061E038DB87E296E005E001
:1033C00010E020E030E040E050E060E070E0CCDA77
:1033D000CE0164E04FE50BDDCE0163E088DDCE0178
:1033E00062E05EDD882311F081E08983CE0162E036
:1033F00057DDCE0162E03DDDCE016CE140E0F7DC5F
:10340000CE0167E040E7F3DCCE016CE4A1DECE0143
:1034100069DBCE0153DBDF91CF911F910F910895AE
:103420004F925F926F927F928F929F92AF92BF92D4
:10343000CF92DF92EF92FF920F931F93DF93CF9380
:1034400000D000D00F92CDB7DEB75C01E42EF22E93
:10345000FB0101900020E9F73197E61BF70B389745
:1034600010F020E001C029E000D000D000D0EDB77E
:10347000FEB7319680EB92E0ADB7BEB712969C9343
:103480008E93119762837383248315828AD4EDB758
:10349000FEB736960FB6F894FEBF0FBEEDBF2E01F5
:1034A0000894411C511C88EB682E82E0782E06E0BF
:1034B000802E912C8C0E9D1E1CEBC12E12E0D12E65
:1034C0002CC0C5016E2DA20125E024DC00D0ADB7D3
:1034D000BEB712967C926E92119763D484010F90BE
:1034E0000F9014C000D000D0EDB7FEB73196ADB745
:1034F000BEB71296DC92CE921197D8018C9182833E
:1035000013824FD40F900F900F900F9001501040E6
:103510000C171D0739F7E394FA94FF2091F681EC1C
:1035200092E051D40F900F900F900F900F90CF9189
:10353000DF911F910F91FF90EF90DF90CF90BF90A0
:10354000AF909F908F907F906F905F904F90089575
:10355000CF92DF92FF920F931F93CF93DF936C0173
:10356000042FF22EFB0101900020E9F73197E61BB2
:10357000F70B389710F020E001C029E000D000D010
:1035800000D0EDB7FEB7319680EB92E0ADB7BEB795
:1035900012969C938E931197628373832483158272
:1035A00000D48DB79EB706960FB6F8949EBF0FBE97
:1035B0008DBFC3ECD2E019C0102F1F5FC601602F72
:1035C00039DB00D000D0EDB7FEB73196ADB7BEB74E
:1035D0001296DC93CE93119782831382E2D3FA94EE
:1035E000012F0F900F900F900F90FF2029F781EC83
:1035F00092E0E9D3DF91CF911F910F91FF90DF907F
:10360000CF9008950F931F938C0144DA682FC8015F
:10361000A5DBC8016BEC72E04AE022E001DFC801E3
:1036200068ED72E04CE024E093DFC80165EE72E0E3
:1036300040E121E0F5DEC8016DEE72E041E126E0F7
:1036400087DFC80168EF72E041E021E081DFC80157
:103650006EEF72E042E021E07BDFC80168E073E0DA
:1036600045E021E075DFC8016EE073E046E021E04F
:103670006FDFC80167E173E040E021E069DFC80166
:103680006EE173E04CE122E063DFC8011ADB00D099
:1036900000D02CE233E0ADB7BEB712963C932E9328
:1036A0001197E82FF0E0EE0FFF1FE556FB4F8081EA
:1036B000918114969C938E93139773D38EE393E02A
:1036C000EDB7FEB792838183D8011196EC91F0E0BB
:1036D000EE0FFF1FEF55FB4F80819181EDB7FEB7D5
:1036E000948383835ED30F900F900F900F90C80147
:1036F000DBDA00D000D02DE433E0ADB7BEB71296D0
:103700003C932E931197E82FF0E0EE0FFF1FEB553F
:10371000FB4F8081918114969C938E93139741D394
:103720000F900F900F900F90C801D8DA00D000D002
:1037300020E633E0EDB7FEB732832183E82FF0E0D7
:10374000EE0FFF1FE555FB4F80819181ADB7BEB7EE
:1037500014969C938E93139724D30F900F900F90F1
:103760000F901F910F910895219A259A239A2498DA
:10377000229A089581E58CBD0895882311F0299A35
:10378000089529980895882311F02A9A08952A986F
:1037900008958EBD0DB407FEFDCF8EB5089520911E
:1037A00028063091290640912A0650912B066091F7
:1037B0002C0670912D0680912E0690912F0631D007
:1037C000CB010895BBD1209328063093290640935E
:1037D0002A0650932B0660932C0670932D06809337
:1037E0002E0690932F06089585E080938100EFE6E2
:1037F000F0E080818160808308958091300690910F
:103800003106A0913206B09133060196A11DB11D7B
:103810008093300690933106A0933206B09333061E
:1038200008952F923F924F925F926F927F928F9264
:103830009F92AF92BF92CF92DF92EF92FF920F933F
:103840001F93CF93DF93922E832E742E652E562EC8
:10385000472E382E292EA0903006B0903106C09009
:103860003206D0903306C0918400D0918500C430D8
:10387000D10540F4A0903006B0903106C0903206D9
:10388000D09033069501A60160E070E080E090E002
:1038900000E10E945901E32FF42F052FF62ED72EB9
:1038A000B82E192FAE012C2BE52BA22EA91881E0E2
:1038B0002A1508F080E03E2F381991E0E31708F050
:1038C00090E0C32EC81A81E03C1508F080E0982BE8
:1038D0004F2F471921E0F41708F020E0E42EE91AF1
:1038E00081E04E1508F080E0282B502F561991E00A
:1038F000051708F090E0052F021B81E0501708F033
:1039000080E0982B6F2D651921E0F61608F020E075
:10391000B62FB91B81E06B1708F080E0282B7D2DB6
:103920007419E1E0D71608F0E0E0A72FA21B91E0A0
:103930007A1708F090E0E92B8B2D8319F1E0B81687
:1039400008F0F0E0982F9E1BE92F91E08E1708F009
:1039500090E0F92B12192A2D3C2D4E2D502F6B2F54
:103960007A2F8E2F912F9F1BB0E1AB2EA7E2BA2E9C
:10397000CC24DD24EE24FF2400E010E00E945E0051
:10398000FDE2AF2EE1E3BE2ECC24C3940E94E00200
:10399000952FB901842FDF91CF911F910F91FF9047
:1039A000EF90DF90CF90BF90AF909F908F907F90DF
:1039B0006F905F904F903F902F9008958F929F92BD
:1039C000AF92BF92CF92DF92EF92FF920F931F932D
:1039D000CF93DF934C01009749F420E030E040E0C2
:1039E00050E060E070E080E090E09BC080913006A5
:1039F00090913106A0913206B0913306C0918400B7
:103A0000D0918500C430D10540F48091300690916A
:103A10003106A0913206B09133065C016D019C0124
:103A2000A60160E070E080E090E000E10E945901B2
:103A3000122F032FA42EF52EE62ED72EC82EB92E28
:103A40009E011C2B032BB40180E090E02DE231E3BA
:103A500041E050E0DAD02AE030E040E050E0F4D03D
:103A6000DA01C901BB0F880B982FDC01982FF82FC2
:103A7000B82FA82F912E920E61E0911608F060E009
:103A8000202F230F71E0201708F070E0362F320F3F
:103A900061E0321708F060E0762B2A2D240FE1E078
:103AA0002A1508F0E0E0472F420F61E0421708F0C6
:103AB00060E0E62B2F2D250F71E02F1508F070E048
:103AC0005E2F520F61E0521708F060E0762B8E2DCA
:103AD000890FE1E08E1508F0E0E0672F680F71E0D4
:103AE000681708F070E0E72B8D2D8F0FF1E08D1532
:103AF00008F0F0E07E2F780FE1E0781708F0E0E0C2
:103B0000FE2B8C2D8B0FE1E08C1508F0E0E0F80F18
:103B100091E0F81708F090E09E2BAB0D292D8F2F28
:103B20009A0FDF91CF911F910F91FF90EF90DF904F
:103B3000CF90BF90AF909F908F900895AF92BF921B
:103B4000CF92DF92EF92FF920F931F93CF93DF9369
:103B50008091300690913106A0913206B0913306E3
:103B6000C0918400D0918500C430D10540F480918B
:103B7000300690913106A0913206B09133065C0177
:103B80006D019C01A60160E070E080E090E000E142
:103B90000E9459015E012C2B3B29DF91CF911F918F
:103BA0000F91FF90EF90DF90CF90BF90AF9008956E
:103BB0001092C5008CE08093C40088E98093C10016
:103BC0008EE38093C2008BE794E090933706809356
:103BD00036060895982F8091C00085FFFCCF909302
:103BE000C6000895982F8A3039F48091C00085FF6F
:103BF000FCCF8DE08093C6008091C00085FFFCCF94
:103C00009093C60080E090E00895629FD001739F7A
:103C1000F001829FE00DF11D649FE00DF11D929F68
:103C2000F00D839FF00D749FF00D659FF00D9927A7
:103C3000729FB00DE11DF91F639FB00DE11DF91FCB
:103C4000BD01CF011124089597FB092E05260ED042
:103C500057FD04D014D00AD0001C38F4509540957C
:103C6000309521953F4F4F4F5F4F0895F6F7909550
:103C70008095709561957F4F8F4F9F4F0895A1E27A
:103C80001A2EAA1BBB1BFD010DC0AA1FBB1FEE1FD6
:103C9000FF1FA217B307E407F50720F0A21BB30B21
:103CA000E40BF50B661F771F881F991F1A9469F79D
:103CB00060957095809590959B01AC01BD01CF01F9
:103CC00008952F923F924F925F926F927F928F92C0
:103CD0009F92AF92BF92CF92DF92EF92FF920F939B
:103CE0001F93CF93DF93CDB7DEB7CA1BDB0B0FB6A5
:103CF000F894DEBF0FBECDBF09942A883988488862
:103D00005F846E847D848C849B84AA84B984C884F7
:103D1000DF80EE80FD800C811B81AA81B981CE0FEE
:103D2000D11D0FB6F894DEBF0FBECDBFED010895D3
:103D3000EE0FFF1F0590F491E02D0994FC018827F8
:103D40009927E89421912032E9F3293010F02E30A0
:103D5000C8F32B3239F02D3231F4689403C019D0F6
:103D6000820F911D219120532A30C8F31EF49095A3
:103D700081959F4F0895FB01DC014150504030F088
:103D80008D910190801919F40020B9F7881B990BC7
:103D900008957AE0979F902D879F802D910D112493
:103DA0000895A0E0B0E0E6EDFEE19BCFFE01359680
:103DB000619171918091360690913706AF0138D0AC
:103DC0002096E2E0AACF0F931F93CF93DF938C014D
:103DD000E0913606F0913706838181FF21C0C0E073
:103DE000D0E00DC0E0913606F09137062085318590
:103DF000BF01F9010995892B11F0CFEFDFEFF80131
:103E000081918F01882371F7E0913606F091370692
:103E1000208531858AE0BF01F9010995892B11F0D0
:103E2000CFEFDFEFCE01DF91CF911F910F9108957A
:103E3000ABE0B0E0EDE1FFE144CF3C012B015A01E2
:103E4000FC0117821682838181FD03C06FEF7FEF33
:103E5000B9C19AE0892E1E010894211C311CF3017E
:103E60002381F20123FD859123FF81912F01882376
:103E700009F4A5C1853239F423FD859123FF819191
:103E80002F01853221F490E0B301B6D1E8CF982F0D
:103E9000FF24EE249924FFE1FF15D0F09B3269F056
:103EA0009C3228F4903259F0933291F40EC09D3236
:103EB00049F0903369F441E024C052E0F52A84E0EF
:103EC000F82A28C098E0F92A25C0E0E1FE2A22C09D
:103ED000F7FC29C0892F80538A3070F4F6FE05C0A4
:103EE000989C902C1124980E15C0E89CE02C11246D
:103EF000E80EF0E2FF2A0EC09E3229F4F6FC5FC104
:103F000040E4F42A07C09C3619F450E8F52A02C0B0
:103F1000983649F4F20123FD959123FF91912F01E9
:103F2000992309F0B8CF892F8554833018F0805237
:103F3000833038F444E050E0A40EB51E5FE35983AB
:103F40000FC0933631F0933779F0933509F052C0B2
:103F50001FC0F5018081898342E050E0A40EB51EA8
:103F6000610101E010E011C0F501C080D180F6FCD4
:103F700003C06FEF7FEF02C0692D70E042E050E0B8
:103F8000A40EB51EC6012DD18C015FE7F52213C02A
:103F9000F501C080D180F6FC03C06FEF7FEF02C057
:103FA000692D70E042E050E0A40EB51EC6010ED1AE
:103FB0008C0150E8F52AF3FE06C018C080E290E0BC
:103FC000B3011AD1EA948E2D90E008171907B0F3C7
:103FD0000DC0F601F7FC8591F7FE81916F0190E02D
:103FE000B3010AD1E110EA94015010400115110506
:103FF00081F7E2C0943611F0993661F5F7FE08C0FA
:10400000F501208131814281538184E090E00AC032
:10401000F501808191819C01442737FD4095542F03
:1040200082E090E0A80EB91E9FE6F92257FF09C072
:1040300050954095309521953F4F4F4F5F4FE0E8A9
:10404000FE2ACA01B901A1012AE030E001D1D82E2F
:10405000D2183FC0953729F41F2D1F7E2AE030E08B
:104060001DC01F2D197F9F3661F0903720F49835C1
:1040700009F0A5C00FC0903739F0983709F09FC0FC
:1040800004C028E030E00AC0106114FD146020E193
:1040900030E004C014FD166020E132E017FF08C0D4
:1040A000F501608171818281938144E050E008C014
:1040B000F50180819181BC0180E090E042E050E018
:1040C000A40EB51EA101C4D0D82ED2188FE7F82EA9
:1040D000F122F6FE0BC05EEFF522D91438F4F4FE9F
:1040E00007C0F2FC05C08FEEF82202C01D2D01C0F2
:1040F000192DF4FE0DC0FE01ED0DF11D8081803300
:1041000019F499EEF92208C01F5FF2FE05C003C042
:104110008F2D867809F01F5F0F2DF3FC13C0F0FE82
:104120000EC01E1510F09D2C0AC09D2C9E0C911ADD
:104130001E2D05C080E290E0B3015ED01F5F1E150A
:10414000C8F304C01E1510F4E11A01C0EE2404FFE8
:104150000EC080E390E0B3014FD002FF1BC001FD11
:1041600003C088E790E00EC088E590E00BC0802F88
:10417000867881F001FF02C08BE201C080E2F7FC8B
:104180008DE290E0B30138D005C080E390E0B30148
:1041900033D09A94D914C8F3DA94F101ED0DF11DDE
:1041A000808190E0B30128D0DD20B1F705C080E226
:1041B00090E0B30121D0EA94EE20C9F750CEF3018C
:1041C00066817781CB012B96E2E197CDFC010590CA
:1041D000615070400110D8F7809590958E0F9F1F09
:1041E0000895FC016150704001900110D8F780954E
:1041F00090958E0F9F1F08950F931F93CF93DF937A
:104200008C01EB018B8181FF1BC082FF0DC02E81D1
:104210003F818C819D812817390764F4E881F981F9
:104220000193F983E88306C0E885F985802F099515
:10423000892B31F48E819F8101969F838E8302C0EA
:104240000FEF1FEFC801DF91CF911F910F910895DC
:10425000FA01AA27283051F1203181F1E8946F93B7
:104260006E7F6E5F7F4F8F4F9F4FAF4FB1E03ED05D
:10427000B4E03CD0670F781F891F9A1FA11D680FFB
:10428000791F8A1F911DA11D6A0F711D811D911D2E
:10429000A11D20D009F468943F912AE0269F1124A3
:1042A0003019305D3193DEF6CF010895462F477007
:1042B000405D4193B3E00FD0C9F7F6CF462F4F7062
:1042C000405D4A3318F0495D31FD4052419302D0C0
:1042D000A9F7EACFB4E0A695979587957795679566
:1042E000BA95C9F700976105710508959B01AC0166
:1042F0000A2E06945795479537952795BA95C9F78D
:10430000620F731F841F951FA01D0895F894FFCF9F
:104310000A207465737454696D65722825642900D8
:104320000A20646966664D696C6C6973203D2025BE
:104330006C64007465737420007365744A6F623135
:10434000200073656E6420006F6B2E2E2E0A0D0008
:104350006661696C65642E0A0D000A20556E6B6EED
:104360006F776E20636F6D6D616E642E00537461A4
:1043700072742041544D4547413332382E000A6152
:10438000746D6567613332383E0053746172742016
:104390004E524632344C30315020746573742E2E98
:1043A0002E003C4241434B5350414345204E4F5415
:1043B00020535550504F525445443E000A20535705
:1043C00049544348204F4646204C4544000A204467
:1043D0004154415B25695D004F4253455256455F4C
:1043E00054583D253032783A20504F4C535F434E5D
:1043F000543D2578204152435F434E543D25780D6E
:104400000A005354415455530909203D2030782562
:104410003032782052585F44523D25782054585FFE
:1044200044533D2578204D41585F52543D25782016
:1044300052585F505F4E4F3D25782054585F465587
:104440004C4C3D25780D0A0077726974655F726582
:1044500067697374657228253032782C253032787C
:10446000290D0A00464541545552453D25690D0A1E
:10447000006F6273657276655F7478203D20253029
:1044800032780D0A002E2E2E4F4B2E0D0A005B4166
:10449000636B5061636B65745D2061636B5F70611A
:1044A000796C6F61645F6C656E677468203D202570
:1044B000640D0A002E2E2E4661696C65640D0A009B
:1044C0002573092563203D0020307800253032789F
:1044D000000D00203078253032780052585F41447A
:1044E00044525F50302D310052585F414444525F76
:1044F00050322D350054585F414444520052585FA9
:1045000050575F50302D3600454E5F414100454EBB
:104510005F5258414444520052465F43480052465D
:104520005F534554555000434F4E46494700445948
:104530004E50442F464541545552450044617461E4
:10454000205261746509203D2025730D0A004D6FCE
:1045500064656C0909203D2025730D0A0043524310
:10456000204C656E67746809203D2025730D0A0094
:10457000504120506F77657209203D2025730D0A48
:10458000000000000000000000000102020303031D
:1045900003040404040404040405050505050505D5
:1045A00005050505050505050506060606060606B4
:1045B000060606060606060606060606060606069B
:1045C0000606060606060606060707070707070784
:1045D000070707070707070707070707070707076B
:1045E000070707070707070707070707070707075B
:1045F000070707070707070707070707070707074B
:104600000707070707070707070808080808080833
:10461000080808080808080808080808080808081A
:10462000080808080808080808080808080808080A
:1046300008080808080808080808080808080808FA
:1046400008080808080808080808080808080808EA
:1046500008080808080808080808080808080808DA
:1046600008080808080808080808080808080808CA
:1046700008080808080808080808080808080808BA
:1046800008080808080808080803000000000200DD
:10469000000000F21D000000000001020304050AF2
:1046A0000B0C0D0E0F111213141516B304B904BF21
:1046B00004C704D004DA04E304EA04F204F90400B1
:1046C000050805314D42505300324D4250530032DF
:1046D00035304B425053006E524632344C3031002C
:1046E0006E524632344C30312B0044697361626C37
:1046F0006564003820626974730031362062697421
:10470000730050415F4D494E0050415F4C4F570080
:1047100050415F484947480050415F4D41580000B3
:00000001FF
